{
  "contractName": "ChessContract",
  "abi": [
    {
      "inputs": [
        {
          "internalType": "address",
          "name": "lowbToken_",
          "type": "address"
        }
      ],
      "stateMutability": "nonpayable",
      "type": "constructor"
    },
    {
      "anonymous": false,
      "inputs": [
        {
          "indexed": true,
          "internalType": "uint256",
          "name": "gameId",
          "type": "uint256"
        },
        {
          "indexed": false,
          "internalType": "uint256",
          "name": "value",
          "type": "uint256"
        },
        {
          "indexed": false,
          "internalType": "address",
          "name": "redAddress",
          "type": "address"
        },
        {
          "indexed": false,
          "internalType": "address",
          "name": "blackAddress",
          "type": "address"
        },
        {
          "indexed": false,
          "internalType": "uint256",
          "name": "gameResult",
          "type": "uint256"
        }
      ],
      "name": "GameOver",
      "type": "event"
    },
    {
      "anonymous": false,
      "inputs": [
        {
          "indexed": true,
          "internalType": "uint256",
          "name": "gameId",
          "type": "uint256"
        },
        {
          "indexed": false,
          "internalType": "uint256",
          "name": "value",
          "type": "uint256"
        },
        {
          "indexed": false,
          "internalType": "address",
          "name": "redAddress",
          "type": "address"
        },
        {
          "indexed": false,
          "internalType": "address",
          "name": "blackAddress",
          "type": "address"
        }
      ],
      "name": "GameStart",
      "type": "event"
    },
    {
      "inputs": [
        {
          "internalType": "address",
          "name": "",
          "type": "address"
        }
      ],
      "name": "GamePlayers",
      "outputs": [
        {
          "internalType": "bool",
          "name": "isPlaying",
          "type": "bool"
        },
        {
          "internalType": "address",
          "name": "redPlayer",
          "type": "address"
        },
        {
          "internalType": "address",
          "name": "blckPlayer",
          "type": "address"
        },
        {
          "internalType": "uint256",
          "name": "value",
          "type": "uint256"
        }
      ],
      "stateMutability": "view",
      "type": "function",
      "constant": true
    },
    {
      "inputs": [],
      "name": "lowbTokenAddress",
      "outputs": [
        {
          "internalType": "address",
          "name": "",
          "type": "address"
        }
      ],
      "stateMutability": "view",
      "type": "function",
      "constant": true
    },
    {
      "inputs": [],
      "name": "owner",
      "outputs": [
        {
          "internalType": "address",
          "name": "",
          "type": "address"
        }
      ],
      "stateMutability": "view",
      "type": "function",
      "constant": true
    },
    {
      "inputs": [
        {
          "internalType": "address",
          "name": "",
          "type": "address"
        }
      ],
      "name": "pendingWithdrawals",
      "outputs": [
        {
          "internalType": "uint256",
          "name": "",
          "type": "uint256"
        }
      ],
      "stateMutability": "view",
      "type": "function",
      "constant": true
    },
    {
      "inputs": [
        {
          "internalType": "uint256",
          "name": "",
          "type": "uint256"
        }
      ],
      "name": "playingChessGame",
      "outputs": [
        {
          "internalType": "bool",
          "name": "isPlaying",
          "type": "bool"
        },
        {
          "internalType": "address",
          "name": "redPlayer",
          "type": "address"
        },
        {
          "internalType": "address",
          "name": "blckPlayer",
          "type": "address"
        },
        {
          "internalType": "uint256",
          "name": "value",
          "type": "uint256"
        }
      ],
      "stateMutability": "view",
      "type": "function",
      "constant": true
    },
    {
      "inputs": [
        {
          "internalType": "uint256",
          "name": "amount",
          "type": "uint256"
        }
      ],
      "name": "deposit",
      "outputs": [],
      "stateMutability": "nonpayable",
      "type": "function"
    },
    {
      "inputs": [
        {
          "internalType": "uint256",
          "name": "amount",
          "type": "uint256"
        }
      ],
      "name": "withdraw",
      "outputs": [],
      "stateMutability": "nonpayable",
      "type": "function"
    },
    {
      "inputs": [
        {
          "internalType": "address",
          "name": "redPlayer",
          "type": "address"
        },
        {
          "internalType": "address",
          "name": "blackPlayer",
          "type": "address"
        },
        {
          "internalType": "uint256",
          "name": "value_",
          "type": "uint256"
        }
      ],
      "name": "startPlayGame",
      "outputs": [
        {
          "internalType": "uint256",
          "name": "",
          "type": "uint256"
        }
      ],
      "stateMutability": "nonpayable",
      "type": "function"
    },
    {
      "inputs": [
        {
          "internalType": "uint256",
          "name": "gameId",
          "type": "uint256"
        },
        {
          "internalType": "uint256",
          "name": "gameResult",
          "type": "uint256"
        }
      ],
      "name": "gameOver",
      "outputs": [],
      "stateMutability": "nonpayable",
      "type": "function"
    },
    {
      "inputs": [],
      "name": "pullFunds",
      "outputs": [],
      "stateMutability": "nonpayable",
      "type": "function"
    }
  ],
  "bytecode": "0x608060405260646003553480156200001657600080fd5b5060405162001d6038038062001d6083398181016040528101906200003c9190620000e3565b806000806101000a81548173ffffffffffffffffffffffffffffffffffffffff021916908373ffffffffffffffffffffffffffffffffffffffff16021790555033600160006101000a81548173ffffffffffffffffffffffffffffffffffffffff021916908373ffffffffffffffffffffffffffffffffffffffff16021790555060fa600281905550506200015d565b600081519050620000dd8162000143565b92915050565b600060208284031215620000f657600080fd5b60006200010684828501620000cc565b91505092915050565b60006200011c8262000123565b9050919050565b600073ffffffffffffffffffffffffffffffffffffffff82169050919050565b6200014e816200010f565b81146200015a57600080fd5b50565b611bf3806200016d6000396000f3fe608060405234801561001057600080fd5b506004361061009e5760003560e01c8063b6b55f2511610066578063b6b55f251461015e578063be768aa41461017a578063e43a0bb214610196578063ec844c13146101a0578063f3f43703146101d35761009e565b80632e1a7d4d146100a357806349a5fa8d146100bf57806353defe00146100ef57806368249dcb146101225780638da5cb5b14610140575b600080fd5b6100bd60048036038101906100b89190611408565b610203565b005b6100d960048036038101906100d49190611390565b6103d1565b6040516100e691906118cc565b60405180910390f35b61010960048036038101906101049190611367565b610abd565b6040516101199493929190611787565b60405180910390f35b61012a610b3a565b604051610137919061170c565b60405180910390f35b610148610b5e565b604051610155919061170c565b60405180910390f35b61017860048036038101906101739190611408565b610b84565b005b610194600480360381019061018f9190611431565b610d15565b005b61019e610ff5565b005b6101ba60048036038101906101b59190611408565b6111c0565b6040516101ca9493929190611787565b60405180910390f35b6101ed60048036038101906101e89190611367565b61123d565b6040516101fa91906118cc565b60405180910390f35b600460003273ffffffffffffffffffffffffffffffffffffffff1673ffffffffffffffffffffffffffffffffffffffff16815260200190815260200160002054811115610285576040517f08c379a000000000000000000000000000000000000000000000000000000000815260040161027c9061180c565b60405180910390fd5b80600460003273ffffffffffffffffffffffffffffffffffffffff1673ffffffffffffffffffffffffffffffffffffffff16815260200190815260200160002060008282546102d49190611a55565b9250508190555060008060009054906101000a900473ffffffffffffffffffffffffffffffffffffffff1690508073ffffffffffffffffffffffffffffffffffffffff1663a9059cbb32846040518363ffffffff1660e01b815260040161033c92919061175e565b602060405180830381600087803b15801561035657600080fd5b505af115801561036a573d6000803e3d6000fd5b505050506040513d601f19601f8201168201806040525081019061038e91906113df565b6103cd576040517f08c379a00000000000000000000000000000000000000000000000000000000081526004016103c49061184c565b60405180910390fd5b5050565b6000600160009054906101000a900473ffffffffffffffffffffffffffffffffffffffff1673ffffffffffffffffffffffffffffffffffffffff163373ffffffffffffffffffffffffffffffffffffffff1614610463576040517f08c379a000000000000000000000000000000000000000000000000000000000815260040161045a9061182c565b60405180910390fd5b600660008573ffffffffffffffffffffffffffffffffffffffff1673ffffffffffffffffffffffffffffffffffffffff16815260200190815260200160002060000160009054906101000a900460ff16156104f3576040517f08c379a00000000000000000000000000000000000000000000000000000000081526004016104ea906117cc565b60405180910390fd5b600660008473ffffffffffffffffffffffffffffffffffffffff1673ffffffffffffffffffffffffffffffffffffffff16815260200190815260200160002060000160009054906101000a900460ff1615610583576040517f08c379a000000000000000000000000000000000000000000000000000000000815260040161057a906118ac565b60405180910390fd5b600460008573ffffffffffffffffffffffffffffffffffffffff1673ffffffffffffffffffffffffffffffffffffffff16815260200190815260200160002054821115610605576040517f08c379a00000000000000000000000000000000000000000000000000000000081526004016105fc906117ec565b60405180910390fd5b600460008473ffffffffffffffffffffffffffffffffffffffff1673ffffffffffffffffffffffffffffffffffffffff16815260200190815260200160002054821115610687576040517f08c379a000000000000000000000000000000000000000000000000000000000815260040161067e906117ec565b60405180910390fd5b81600460008673ffffffffffffffffffffffffffffffffffffffff1673ffffffffffffffffffffffffffffffffffffffff16815260200190815260200160002060008282546106d69190611a55565b9250508190555081600460008573ffffffffffffffffffffffffffffffffffffffff1673ffffffffffffffffffffffffffffffffffffffff168152602001908152602001600020600082825461072c9190611a55565b92505081905550600060405180608001604052806001151581526020018673ffffffffffffffffffffffffffffffffffffffff1681526020018573ffffffffffffffffffffffffffffffffffffffff16815260200160028561078e91906119fb565b815250905080600660008773ffffffffffffffffffffffffffffffffffffffff1673ffffffffffffffffffffffffffffffffffffffff16815260200190815260200160002060008201518160000160006101000a81548160ff02191690831515021790555060208201518160000160016101000a81548173ffffffffffffffffffffffffffffffffffffffff021916908373ffffffffffffffffffffffffffffffffffffffff16021790555060408201518160010160006101000a81548173ffffffffffffffffffffffffffffffffffffffff021916908373ffffffffffffffffffffffffffffffffffffffff1602179055506060820151816002015590505080600660008673ffffffffffffffffffffffffffffffffffffffff1673ffffffffffffffffffffffffffffffffffffffff16815260200190815260200160002060008201518160000160006101000a81548160ff02191690831515021790555060208201518160000160016101000a81548173ffffffffffffffffffffffffffffffffffffffff021916908373ffffffffffffffffffffffffffffffffffffffff16021790555060408201518160010160006101000a81548173ffffffffffffffffffffffffffffffffffffffff021916908373ffffffffffffffffffffffffffffffffffffffff160217905550606082015181600201559050506003600081548092919061099c90611ad1565b91905055508060056000600354815260200190815260200160002060008201518160000160006101000a81548160ff02191690831515021790555060208201518160000160016101000a81548173ffffffffffffffffffffffffffffffffffffffff021916908373ffffffffffffffffffffffffffffffffffffffff16021790555060408201518160010160006101000a81548173ffffffffffffffffffffffffffffffffffffffff021916908373ffffffffffffffffffffffffffffffffffffffff160217905550606082015181600201559050506003547f5c44fce0f7fc61e35b3e10b7de9559e195260e74e68d5df5a3275d3d1ec2a7aa848787604051610aa8939291906118e7565b60405180910390a26003549150509392505050565b60066020528060005260406000206000915090508060000160009054906101000a900460ff16908060000160019054906101000a900473ffffffffffffffffffffffffffffffffffffffff16908060010160009054906101000a900473ffffffffffffffffffffffffffffffffffffffff16908060020154905084565b60008054906101000a900473ffffffffffffffffffffffffffffffffffffffff1681565b600160009054906101000a900473ffffffffffffffffffffffffffffffffffffffff1681565b60008111610bc7576040517f08c379a0000000000000000000000000000000000000000000000000000000008152600401610bbe9061188c565b60405180910390fd5b60008060009054906101000a900473ffffffffffffffffffffffffffffffffffffffff1690508073ffffffffffffffffffffffffffffffffffffffff166323b872dd3230856040518463ffffffff1660e01b8152600401610c2a93929190611727565b602060405180830381600087803b158015610c4457600080fd5b505af1158015610c58573d6000803e3d6000fd5b505050506040513d601f19601f82011682018060405250810190610c7c91906113df565b610cbb576040517f08c379a0000000000000000000000000000000000000000000000000000000008152600401610cb29061184c565b60405180910390fd5b81600460003273ffffffffffffffffffffffffffffffffffffffff1673ffffffffffffffffffffffffffffffffffffffff1681526020019081526020016000206000828254610d0a9190611974565b925050819055505050565b600160009054906101000a900473ffffffffffffffffffffffffffffffffffffffff1673ffffffffffffffffffffffffffffffffffffffff163373ffffffffffffffffffffffffffffffffffffffff1614610da5576040517f08c379a0000000000000000000000000000000000000000000000000000000008152600401610d9c9061182c565b60405180910390fd5b6000600560008481526020019081526020016000206040518060800160405290816000820160009054906101000a900460ff161515151581526020016000820160019054906101000a900473ffffffffffffffffffffffffffffffffffffffff1673ffffffffffffffffffffffffffffffffffffffff1673ffffffffffffffffffffffffffffffffffffffff1681526020016001820160009054906101000a900473ffffffffffffffffffffffffffffffffffffffff1673ffffffffffffffffffffffffffffffffffffffff1673ffffffffffffffffffffffffffffffffffffffff16815260200160028201548152505090506000816060015190506000610eac82611255565b905060008183610ebc9190611a55565b9050600c851415610f26578060046000866020015173ffffffffffffffffffffffffffffffffffffffff1673ffffffffffffffffffffffffffffffffffffffff1681526020019081526020016000206000828254610f1a9190611974565b92505081905550610f8b565b6016851415610f8a578060046000866040015173ffffffffffffffffffffffffffffffffffffffff1673ffffffffffffffffffffffffffffffffffffffff1681526020019081526020016000206000828254610f829190611974565b925050819055505b5b857f5d3aa70c19f2f5b91ef562f5c6729e14006b44915d6acf90b4b89dc75fb42a53848660200151876040015189604051610fc9949392919061191e565b60405180910390a260008460000190151590811515815250506000846060018181525050505050505050565b600160009054906101000a900473ffffffffffffffffffffffffffffffffffffffff1673ffffffffffffffffffffffffffffffffffffffff163373ffffffffffffffffffffffffffffffffffffffff1614611085576040517f08c379a000000000000000000000000000000000000000000000000000000000815260040161107c9061182c565b60405180910390fd5b60008060009054906101000a900473ffffffffffffffffffffffffffffffffffffffff1690508073ffffffffffffffffffffffffffffffffffffffff1663a9059cbb33600460003073ffffffffffffffffffffffffffffffffffffffff1673ffffffffffffffffffffffffffffffffffffffff168152602001908152602001600020546040518363ffffffff1660e01b815260040161112592919061175e565b602060405180830381600087803b15801561113f57600080fd5b505af1158015611153573d6000803e3d6000fd5b505050506040513d601f19601f8201168201806040525081019061117791906113df565b506000600460003073ffffffffffffffffffffffffffffffffffffffff1673ffffffffffffffffffffffffffffffffffffffff1681526020019081526020016000208190555050565b60056020528060005260406000206000915090508060000160009054906101000a900460ff16908060000160019054906101000a900473ffffffffffffffffffffffffffffffffffffffff16908060010160009054906101000a900473ffffffffffffffffffffffffffffffffffffffff16908060020154905084565b60046020528060005260406000206000915090505481565b6000806002546127108461126991906119ca565b61127391906119fb565b9050600081846112839190611a55565b9050600081116112c8576040517f08c379a00000000000000000000000000000000000000000000000000000000081526004016112bf9061186c565b60405180910390fd5b81600460003073ffffffffffffffffffffffffffffffffffffffff1673ffffffffffffffffffffffffffffffffffffffff16815260200190815260200160002060008282546113179190611974565b925050819055508092505050919050565b60008135905061133781611b78565b92915050565b60008151905061134c81611b8f565b92915050565b60008135905061136181611ba6565b92915050565b60006020828403121561137957600080fd5b600061138784828501611328565b91505092915050565b6000806000606084860312156113a557600080fd5b60006113b386828701611328565b93505060206113c486828701611328565b92505060406113d586828701611352565b9150509250925092565b6000602082840312156113f157600080fd5b60006113ff8482850161133d565b91505092915050565b60006020828403121561141a57600080fd5b600061142884828501611352565b91505092915050565b6000806040838503121561144457600080fd5b600061145285828601611352565b925050602061146385828601611352565b9150509250929050565b61147681611a89565b82525050565b61148581611a9b565b82525050565b6000611498601983611963565b91507f726564506c6179657220696e20616e6f7468657220726f6f6d000000000000006000830152602082019050919050565b60006114d8603583611963565b91507f726564506c617965722076616c75655f206c6172676572207468616e2074686160008301527f742070656e64696e6720746f20776974686472617700000000000000000000006020830152604082019050919050565b600061153e602b83611963565b91507f616d6f756e74206c6172676572207468616e20746861742070656e64696e672060008301527f746f2077697468647261770000000000000000000000000000000000000000006020830152604082019050919050565b60006115a4601583611963565b91507f596f7520617265206e6f7420746865206f776e657200000000000000000000006000830152602082019050919050565b60006115e4601483611963565b91507f4c6f7762207472616e73666572206661696c65640000000000000000000000006000830152602082019050919050565b6000611624602c83611963565b91507f466565732073686f756c64206c657373207468616e20746865207472616e736160008301527f6374696f6e2076616c75652e00000000000000000000000000000000000000006020830152604082019050919050565b600061168a601483611963565b91507f596f75206465706f736974206e6f7468696e67210000000000000000000000006000830152602082019050919050565b60006116ca601b83611963565b91507f626c61636b506c6179657220696e20616e6f7468657220726f6f6d00000000006000830152602082019050919050565b61170681611ac7565b82525050565b6000602082019050611721600083018461146d565b92915050565b600060608201905061173c600083018661146d565b611749602083018561146d565b61175660408301846116fd565b949350505050565b6000604082019050611773600083018561146d565b61178060208301846116fd565b9392505050565b600060808201905061179c600083018761147c565b6117a9602083018661146d565b6117b6604083018561146d565b6117c360608301846116fd565b95945050505050565b600060208201905081810360008301526117e58161148b565b9050919050565b60006020820190508181036000830152611805816114cb565b9050919050565b6000602082019050818103600083015261182581611531565b9050919050565b6000602082019050818103600083015261184581611597565b9050919050565b60006020820190508181036000830152611865816115d7565b9050919050565b6000602082019050818103600083015261188581611617565b9050919050565b600060208201905081810360008301526118a58161167d565b9050919050565b600060208201905081810360008301526118c5816116bd565b9050919050565b60006020820190506118e160008301846116fd565b92915050565b60006060820190506118fc60008301866116fd565b611909602083018561146d565b611916604083018461146d565b949350505050565b600060808201905061193360008301876116fd565b611940602083018661146d565b61194d604083018561146d565b61195a60608301846116fd565b95945050505050565b600082825260208201905092915050565b600061197f82611ac7565b915061198a83611ac7565b9250827fffffffffffffffffffffffffffffffffffffffffffffffffffffffffffffffff038211156119bf576119be611b1a565b5b828201905092915050565b60006119d582611ac7565b91506119e083611ac7565b9250826119f0576119ef611b49565b5b828204905092915050565b6000611a0682611ac7565b9150611a1183611ac7565b9250817fffffffffffffffffffffffffffffffffffffffffffffffffffffffffffffffff0483118215151615611a4a57611a49611b1a565b5b828202905092915050565b6000611a6082611ac7565b9150611a6b83611ac7565b925082821015611a7e57611a7d611b1a565b5b828203905092915050565b6000611a9482611aa7565b9050919050565b60008115159050919050565b600073ffffffffffffffffffffffffffffffffffffffff82169050919050565b6000819050919050565b6000611adc82611ac7565b91507fffffffffffffffffffffffffffffffffffffffffffffffffffffffffffffffff821415611b0f57611b0e611b1a565b5b600182019050919050565b7f4e487b7100000000000000000000000000000000000000000000000000000000600052601160045260246000fd5b7f4e487b7100000000000000000000000000000000000000000000000000000000600052601260045260246000fd5b611b8181611a89565b8114611b8c57600080fd5b50565b611b9881611a9b565b8114611ba357600080fd5b50565b611baf81611ac7565b8114611bba57600080fd5b5056fea2646970667358221220115f3812cb11fc03a59a85522de0d7b69c427e1a362c258c067192b756e62a2b64736f6c63430008000033",
  "immutableReferences": {},
  "source": "// contracts/LowbMarket.sol\n// SPDX-License-Identifier: MIT\npragma solidity 0.8.0;\n\nimport \"@openzeppelin/contracts/token/ERC20/IERC20.sol\";\n\ncontract ChessContract {\n\n    address public lowbTokenAddress;\n\n    address public owner;\n\n    /* Inverse basis point. */\n    uint private constant INVERSE_BASIS_POINT = 10000;\n    uint private fee;\n    /* GameId */\n    uint private curGameId = 100;\n\n    struct ChessGame {\n        bool isPlaying;\n        address redPlayer;\n        address blckPlayer;\n        uint value;\n    }\n\n    mapping (address => uint) public pendingWithdrawals;\n\n    mapping (uint => ChessGame) public playingChessGame;\n    mapping (address => ChessGame) public GamePlayers;\n\n    event GameStart(uint indexed gameId, uint value, address redAddress, address blackAddress);\n    event GameOver(uint indexed gameId, uint value, address redAddress, address blackAddress, uint gameResult);\n\n\n    constructor(address lowbToken_) {\n        lowbTokenAddress = lowbToken_;\n        owner = msg.sender;\n        fee = 250;\n    }\n\n    modifier onlyOwner{\n        require(msg.sender == owner, \"You are not the owner\");\n        _;\n    }\n\n    function deposit(uint amount) public {\n        require(amount > 0, \"You deposit nothing!\");\n        IERC20 token = IERC20(lowbTokenAddress);\n        require(token.transferFrom(tx.origin, address(this), amount), \"Lowb transfer failed\");\n        pendingWithdrawals[tx.origin] +=  amount;\n    }\n\n    function withdraw(uint amount) public {\n        require(amount <= pendingWithdrawals[tx.origin], \"amount larger than that pending to withdraw\");  \n        pendingWithdrawals[tx.origin] -= amount;\n        IERC20 token = IERC20(lowbTokenAddress);\n        require(token.transfer(tx.origin, amount), \"Lowb transfer failed\");\n    }\n\n    function _makeDeal(uint amount) private returns (uint) {\n        uint fee_amount = amount / INVERSE_BASIS_POINT * fee;\n        uint actual_amount = amount - fee_amount;\n        require(actual_amount > 0, \"Fees should less than the transaction value.\");\n        pendingWithdrawals[address(this)] += fee_amount;\n        return actual_amount;\n    }\n\n    /*  */\n    function startPlayGame(address redPlayer, address blackPlayer, uint value_) public onlyOwner returns(uint) {\n        require(!GamePlayers[redPlayer].isPlaying, \"redPlayer in another room\");\n        require(!GamePlayers[blackPlayer].isPlaying, \"blackPlayer in another room\");\n        require(value_ <= pendingWithdrawals[redPlayer], \"redPlayer value_ larger than that pending to withdraw\");  \n        require(value_ <= pendingWithdrawals[blackPlayer], \"redPlayer value_ larger than that pending to withdraw\");  \n        pendingWithdrawals[redPlayer] -= value_;\n        pendingWithdrawals[blackPlayer] -= value_;\n        ChessGame memory game = ChessGame(true, redPlayer, blackPlayer, value_ * 2);\n        GamePlayers[redPlayer] = game;\n        GamePlayers[blackPlayer] = game;\n        curGameId++;\n        playingChessGame[curGameId] = game;\n        emit GameStart(curGameId, value_, redPlayer, blackPlayer);\n        return curGameId;\n    }\n\n\n    /*  */\n    function gameOver(uint gameId, uint gameResult) public onlyOwner {\n        ChessGame memory game = playingChessGame[gameId];\n        uint value = game.value;\n        uint deal = _makeDeal(value);\n        uint realValue = value - deal;\n        if (gameResult == 12) {\n            pendingWithdrawals[game.redPlayer] += realValue;\n        } else if (gameResult == 22) {\n            pendingWithdrawals[game.blckPlayer] += realValue;\n        }\n        emit GameOver(gameId, value, game.redPlayer, game.blckPlayer, gameResult);\n        game.isPlaying = false;\n        game.value = 0;\n    }\n\n\n\n    function pullFunds() public onlyOwner {\n        IERC20 lowb = IERC20(lowbTokenAddress);\n        lowb.transfer(msg.sender, pendingWithdrawals[address(this)]);\n        pendingWithdrawals[address(this)] = 0;\n    }\n\n}",
  "sourcePath": "/Users/qiuyayong/Workspace/truffle/lowbChessContract/contracts/ChessContract.sol",
  "compiler": {
    "name": "solc",
    "version": "0.8.0+commit.c7dfd78e.Emscripten.clang"
  },
  "schemaVersion": "3.3.4",
  "updatedAt": "2021-07-19T08:08:56.403Z",
  "networkType": "ethereum",
  "devdoc": {
    "kind": "dev",
    "methods": {},
    "version": 1
  },
  "userdoc": {
    "kind": "user",
    "methods": {},
    "version": 1
  }
}