{
  "contractName": "ChessContract",
  "abi": [
    {
      "inputs": [
        {
          "internalType": "address",
          "name": "lowbToken_",
          "type": "address"
        }
      ],
      "stateMutability": "nonpayable",
      "type": "constructor"
    },
    {
      "inputs": [
        {
          "internalType": "address",
          "name": "",
          "type": "address"
        }
      ],
      "name": "GamePlayers",
      "outputs": [
        {
          "internalType": "bool",
          "name": "isUsed",
          "type": "bool"
        },
        {
          "internalType": "bool",
          "name": "isPlaying",
          "type": "bool"
        },
        {
          "internalType": "address",
          "name": "redPlayer",
          "type": "address"
        },
        {
          "internalType": "address",
          "name": "blckPlayer",
          "type": "address"
        },
        {
          "internalType": "uint256",
          "name": "value",
          "type": "uint256"
        }
      ],
      "stateMutability": "view",
      "type": "function",
      "constant": true
    },
    {
      "inputs": [],
      "name": "INVERSE_BASIS_POINT",
      "outputs": [
        {
          "internalType": "uint256",
          "name": "",
          "type": "uint256"
        }
      ],
      "stateMutability": "view",
      "type": "function",
      "constant": true
    },
    {
      "inputs": [],
      "name": "fee",
      "outputs": [
        {
          "internalType": "uint256",
          "name": "",
          "type": "uint256"
        }
      ],
      "stateMutability": "view",
      "type": "function",
      "constant": true
    },
    {
      "inputs": [],
      "name": "lowbTokenAddress",
      "outputs": [
        {
          "internalType": "address",
          "name": "",
          "type": "address"
        }
      ],
      "stateMutability": "view",
      "type": "function",
      "constant": true
    },
    {
      "inputs": [],
      "name": "owner",
      "outputs": [
        {
          "internalType": "address",
          "name": "",
          "type": "address"
        }
      ],
      "stateMutability": "view",
      "type": "function",
      "constant": true
    },
    {
      "inputs": [
        {
          "internalType": "address",
          "name": "",
          "type": "address"
        }
      ],
      "name": "pendingWithdrawals",
      "outputs": [
        {
          "internalType": "uint256",
          "name": "",
          "type": "uint256"
        }
      ],
      "stateMutability": "view",
      "type": "function",
      "constant": true
    },
    {
      "inputs": [
        {
          "internalType": "uint256",
          "name": "",
          "type": "uint256"
        }
      ],
      "name": "playingChessGame",
      "outputs": [
        {
          "internalType": "bool",
          "name": "isUsed",
          "type": "bool"
        },
        {
          "internalType": "bool",
          "name": "isPlaying",
          "type": "bool"
        },
        {
          "internalType": "address",
          "name": "redPlayer",
          "type": "address"
        },
        {
          "internalType": "address",
          "name": "blckPlayer",
          "type": "address"
        },
        {
          "internalType": "uint256",
          "name": "value",
          "type": "uint256"
        }
      ],
      "stateMutability": "view",
      "type": "function",
      "constant": true
    },
    {
      "inputs": [
        {
          "internalType": "uint256",
          "name": "amount",
          "type": "uint256"
        }
      ],
      "name": "deposit",
      "outputs": [],
      "stateMutability": "nonpayable",
      "type": "function"
    },
    {
      "inputs": [
        {
          "internalType": "uint256",
          "name": "amount",
          "type": "uint256"
        }
      ],
      "name": "withdraw",
      "outputs": [],
      "stateMutability": "nonpayable",
      "type": "function"
    },
    {
      "inputs": [
        {
          "internalType": "uint256",
          "name": "value_",
          "type": "uint256"
        }
      ],
      "name": "createRoom",
      "outputs": [],
      "stateMutability": "nonpayable",
      "type": "function"
    },
    {
      "inputs": [
        {
          "internalType": "uint256",
          "name": "gameId",
          "type": "uint256"
        },
        {
          "internalType": "uint256",
          "name": "value_",
          "type": "uint256"
        }
      ],
      "name": "enterRoom",
      "outputs": [],
      "stateMutability": "nonpayable",
      "type": "function"
    },
    {
      "inputs": [
        {
          "internalType": "uint256",
          "name": "gameId",
          "type": "uint256"
        },
        {
          "internalType": "uint256",
          "name": "gameResult",
          "type": "uint256"
        }
      ],
      "name": "gameOver",
      "outputs": [],
      "stateMutability": "nonpayable",
      "type": "function"
    },
    {
      "inputs": [],
      "name": "pullFunds",
      "outputs": [],
      "stateMutability": "nonpayable",
      "type": "function"
    }
  ],
  "bytecode": "0x60806040523480156200001157600080fd5b5060405162001abe38038062001abe8339818101604052810190620000379190620000de565b806000806101000a81548173ffffffffffffffffffffffffffffffffffffffff021916908373ffffffffffffffffffffffffffffffffffffffff16021790555033600160006101000a81548173ffffffffffffffffffffffffffffffffffffffff021916908373ffffffffffffffffffffffffffffffffffffffff16021790555060fa6002819055505062000158565b600081519050620000d8816200013e565b92915050565b600060208284031215620000f157600080fd5b60006200010184828501620000c7565b91505092915050565b600062000117826200011e565b9050919050565b600073ffffffffffffffffffffffffffffffffffffffff82169050919050565b62000149816200010a565b81146200015557600080fd5b50565b61195680620001686000396000f3fe608060405234801561001057600080fd5b50600436106100cf5760003560e01c8063bbba82571161008c578063ddca3f4311610066578063ddca3f43146101ee578063e43a0bb21461020c578063ec844c1314610216578063f3f437031461024a576100cf565b8063bbba825714610198578063be768aa4146101b4578063cae6047f146101d0576100cf565b80632e1a7d4d146100d457806353defe00146100f057806368249dcb1461012457806382feaa73146101425780638da5cb5b1461015e578063b6b55f251461017c575b600080fd5b6100ee60048036038101906100e991906111e8565b61027a565b005b61010a60048036038101906101059190611196565b610448565b60405161011b959493929190611581565b60405180910390f35b61012c6104d8565b6040516101399190611506565b60405180910390f35b61015c60048036038101906101579190611211565b6104fc565b005b6101666107a9565b6040516101739190611506565b60405180910390f35b610196600480360381019061019191906111e8565b6107cf565b005b6101b260048036038101906101ad91906111e8565b610960565b005b6101ce60048036038101906101c99190611211565b610bc3565b005b6101d8610e05565b6040516101e591906116f4565b60405180910390f35b6101f6610e0b565b60405161020391906116f4565b60405180910390f35b610214610e11565b005b610230600480360381019061022b91906111e8565b610fdc565b604051610241959493929190611581565b60405180910390f35b610264600480360381019061025f9190611196565b61106c565b60405161027191906116f4565b60405180910390f35b600360003273ffffffffffffffffffffffffffffffffffffffff1673ffffffffffffffffffffffffffffffffffffffff168152602001908152602001600020548111156102fc576040517f08c379a00000000000000000000000000000000000000000000000000000000081526004016102f3906115d4565b60405180910390fd5b80600360003273ffffffffffffffffffffffffffffffffffffffff1673ffffffffffffffffffffffffffffffffffffffff168152602001908152602001600020600082825461034b9190611801565b9250508190555060008060009054906101000a900473ffffffffffffffffffffffffffffffffffffffff1690508073ffffffffffffffffffffffffffffffffffffffff1663a9059cbb32846040518363ffffffff1660e01b81526004016103b3929190611558565b602060405180830381600087803b1580156103cd57600080fd5b505af11580156103e1573d6000803e3d6000fd5b505050506040513d601f19601f8201168201806040525081019061040591906111bf565b610444576040517f08c379a000000000000000000000000000000000000000000000000000000000815260040161043b90611634565b60405180910390fd5b5050565b60056020528060005260406000206000915090508060000160009054906101000a900460ff16908060000160019054906101000a900460ff16908060000160029054906101000a900473ffffffffffffffffffffffffffffffffffffffff16908060010160009054906101000a900473ffffffffffffffffffffffffffffffffffffffff16908060020154905085565b60008054906101000a900473ffffffffffffffffffffffffffffffffffffffff1681565b600560003373ffffffffffffffffffffffffffffffffffffffff1673ffffffffffffffffffffffffffffffffffffffff16815260200190815260200160002060000160009054906101000a900460ff161561058c576040517f08c379a000000000000000000000000000000000000000000000000000000000815260040161058390611674565b60405180910390fd5b6004600083815260200190815260200160002060000160009054906101000a900460ff166105ef576040517f08c379a00000000000000000000000000000000000000000000000000000000081526004016105e690611694565b60405180910390fd5b6000600460008481526020019081526020016000206040518060a00160405290816000820160009054906101000a900460ff161515151581526020016000820160019054906101000a900460ff161515151581526020016000820160029054906101000a900473ffffffffffffffffffffffffffffffffffffffff1673ffffffffffffffffffffffffffffffffffffffff1673ffffffffffffffffffffffffffffffffffffffff1681526020016001820160009054906101000a900473ffffffffffffffffffffffffffffffffffffffff1673ffffffffffffffffffffffffffffffffffffffff1673ffffffffffffffffffffffffffffffffffffffff168152602001600282015481525050905033816060019073ffffffffffffffffffffffffffffffffffffffff16908173ffffffffffffffffffffffffffffffffffffffff168152505081600360003373ffffffffffffffffffffffffffffffffffffffff1673ffffffffffffffffffffffffffffffffffffffff16815260200190815260200160002060008282546107849190611801565b92505081905550818160800181815161079d9190611720565b91508181525050505050565b600160009054906101000a900473ffffffffffffffffffffffffffffffffffffffff1681565b60008111610812576040517f08c379a0000000000000000000000000000000000000000000000000000000008152600401610809906116b4565b60405180910390fd5b60008060009054906101000a900473ffffffffffffffffffffffffffffffffffffffff1690508073ffffffffffffffffffffffffffffffffffffffff166323b872dd3330856040518463ffffffff1660e01b815260040161087593929190611521565b602060405180830381600087803b15801561088f57600080fd5b505af11580156108a3573d6000803e3d6000fd5b505050506040513d601f19601f820116820180604052508101906108c791906111bf565b610906576040517f08c379a00000000000000000000000000000000000000000000000000000000081526004016108fd90611634565b60405180910390fd5b81600360003273ffffffffffffffffffffffffffffffffffffffff1673ffffffffffffffffffffffffffffffffffffffff16815260200190815260200160002060008282546109559190611720565b925050819055505050565b600560003373ffffffffffffffffffffffffffffffffffffffff1673ffffffffffffffffffffffffffffffffffffffff16815260200190815260200160002060000160009054906101000a900460ff16156109f0576040517f08c379a00000000000000000000000000000000000000000000000000000000081526004016109e7906115f4565b60405180910390fd5b60006040518060a001604052806001151581526020016001151581526020013373ffffffffffffffffffffffffffffffffffffffff168152602001600073ffffffffffffffffffffffffffffffffffffffff16815260200183815250905080600560003373ffffffffffffffffffffffffffffffffffffffff1673ffffffffffffffffffffffffffffffffffffffff16815260200190815260200160002060008201518160000160006101000a81548160ff02191690831515021790555060208201518160000160016101000a81548160ff02191690831515021790555060408201518160000160026101000a81548173ffffffffffffffffffffffffffffffffffffffff021916908373ffffffffffffffffffffffffffffffffffffffff16021790555060608201518160010160006101000a81548173ffffffffffffffffffffffffffffffffffffffff021916908373ffffffffffffffffffffffffffffffffffffffff1602179055506080820151816002015590505081600360003373ffffffffffffffffffffffffffffffffffffffff1673ffffffffffffffffffffffffffffffffffffffff1681526020019081526020016000206000828254610bb89190611801565b925050819055505050565b600160009054906101000a900473ffffffffffffffffffffffffffffffffffffffff1673ffffffffffffffffffffffffffffffffffffffff163373ffffffffffffffffffffffffffffffffffffffff1614610c53576040517f08c379a0000000000000000000000000000000000000000000000000000000008152600401610c4a90611614565b60405180910390fd5b6000600460008481526020019081526020016000206040518060a00160405290816000820160009054906101000a900460ff161515151581526020016000820160019054906101000a900460ff161515151581526020016000820160029054906101000a900473ffffffffffffffffffffffffffffffffffffffff1673ffffffffffffffffffffffffffffffffffffffff1673ffffffffffffffffffffffffffffffffffffffff1681526020016001820160009054906101000a900473ffffffffffffffffffffffffffffffffffffffff1673ffffffffffffffffffffffffffffffffffffffff1673ffffffffffffffffffffffffffffffffffffffff16815260200160028201548152505090506000816080015190506000610d7582611084565b905060008183610d859190611801565b90508060036000866060015173ffffffffffffffffffffffffffffffffffffffff1673ffffffffffffffffffffffffffffffffffffffff1681526020019081526020016000206000828254610dda9190611720565b9250508190555060008460200190151590811515815250506000846080018181525050505050505050565b61271081565b60025481565b600160009054906101000a900473ffffffffffffffffffffffffffffffffffffffff1673ffffffffffffffffffffffffffffffffffffffff163373ffffffffffffffffffffffffffffffffffffffff1614610ea1576040517f08c379a0000000000000000000000000000000000000000000000000000000008152600401610e98906116d4565b60405180910390fd5b60008060009054906101000a900473ffffffffffffffffffffffffffffffffffffffff1690508073ffffffffffffffffffffffffffffffffffffffff1663a9059cbb33600360003073ffffffffffffffffffffffffffffffffffffffff1673ffffffffffffffffffffffffffffffffffffffff168152602001908152602001600020546040518363ffffffff1660e01b8152600401610f41929190611558565b602060405180830381600087803b158015610f5b57600080fd5b505af1158015610f6f573d6000803e3d6000fd5b505050506040513d601f19601f82011682018060405250810190610f9391906111bf565b506000600360003073ffffffffffffffffffffffffffffffffffffffff1673ffffffffffffffffffffffffffffffffffffffff1681526020019081526020016000208190555050565b60046020528060005260406000206000915090508060000160009054906101000a900460ff16908060000160019054906101000a900460ff16908060000160029054906101000a900473ffffffffffffffffffffffffffffffffffffffff16908060010160009054906101000a900473ffffffffffffffffffffffffffffffffffffffff16908060020154905085565b60036020528060005260406000206000915090505481565b600080600254612710846110989190611776565b6110a291906117a7565b9050600081846110b29190611801565b9050600081116110f7576040517f08c379a00000000000000000000000000000000000000000000000000000000081526004016110ee90611654565b60405180910390fd5b81600360003073ffffffffffffffffffffffffffffffffffffffff1673ffffffffffffffffffffffffffffffffffffffff16815260200190815260200160002060008282546111469190611720565b925050819055508092505050919050565b600081359050611166816118db565b92915050565b60008151905061117b816118f2565b92915050565b60008135905061119081611909565b92915050565b6000602082840312156111a857600080fd5b60006111b684828501611157565b91505092915050565b6000602082840312156111d157600080fd5b60006111df8482850161116c565b91505092915050565b6000602082840312156111fa57600080fd5b600061120884828501611181565b91505092915050565b6000806040838503121561122457600080fd5b600061123285828601611181565b925050602061124385828601611181565b9150509250929050565b61125681611835565b82525050565b61126581611847565b82525050565b6000611278602b8361170f565b91507f616d6f756e74206c6172676572207468616e20746861742070656e64696e672060008301527f746f2077697468647261770000000000000000000000000000000000000000006020830152604082019050919050565b60006112de60178361170f565b91507f796f752061726520696e20616e6f7468657220726f6f6d0000000000000000006000830152602082019050919050565b600061131e60188361170f565b91507f4f6e6c79206f776e65722063616e2067616d654f7665722100000000000000006000830152602082019050919050565b600061135e60148361170f565b91507f4c6f7762207472616e73666572206661696c65640000000000000000000000006000830152602082019050919050565b600061139e602c8361170f565b91507f466565732073686f756c64206c657373207468616e20746865207472616e736160008301527f6374696f6e2076616c75652e00000000000000000000000000000000000000006020830152604082019050919050565b600061140460188361170f565b91507f796f752061726520696e20616e6f7468657220726f6f6d2100000000000000006000830152602082019050919050565b600061144460168361170f565b91507f74686520726f6f6d206973206e6f7420657869737421000000000000000000006000830152602082019050919050565b600061148460148361170f565b91507f596f75206465706f736974206e6f7468696e67210000000000000000000000006000830152602082019050919050565b60006114c4601e8361170f565b91507f4f6e6c79206f776e65722063616e2070756c6c207468652066756e64732100006000830152602082019050919050565b61150081611873565b82525050565b600060208201905061151b600083018461124d565b92915050565b6000606082019050611536600083018661124d565b611543602083018561124d565b61155060408301846114f7565b949350505050565b600060408201905061156d600083018561124d565b61157a60208301846114f7565b9392505050565b600060a082019050611596600083018861125c565b6115a3602083018761125c565b6115b0604083018661124d565b6115bd606083018561124d565b6115ca60808301846114f7565b9695505050505050565b600060208201905081810360008301526115ed8161126b565b9050919050565b6000602082019050818103600083015261160d816112d1565b9050919050565b6000602082019050818103600083015261162d81611311565b9050919050565b6000602082019050818103600083015261164d81611351565b9050919050565b6000602082019050818103600083015261166d81611391565b9050919050565b6000602082019050818103600083015261168d816113f7565b9050919050565b600060208201905081810360008301526116ad81611437565b9050919050565b600060208201905081810360008301526116cd81611477565b9050919050565b600060208201905081810360008301526116ed816114b7565b9050919050565b600060208201905061170960008301846114f7565b92915050565b600082825260208201905092915050565b600061172b82611873565b915061173683611873565b9250827fffffffffffffffffffffffffffffffffffffffffffffffffffffffffffffffff0382111561176b5761176a61187d565b5b828201905092915050565b600061178182611873565b915061178c83611873565b92508261179c5761179b6118ac565b5b828204905092915050565b60006117b282611873565b91506117bd83611873565b9250817fffffffffffffffffffffffffffffffffffffffffffffffffffffffffffffffff04831182151516156117f6576117f561187d565b5b828202905092915050565b600061180c82611873565b915061181783611873565b92508282101561182a5761182961187d565b5b828203905092915050565b600061184082611853565b9050919050565b60008115159050919050565b600073ffffffffffffffffffffffffffffffffffffffff82169050919050565b6000819050919050565b7f4e487b7100000000000000000000000000000000000000000000000000000000600052601160045260246000fd5b7f4e487b7100000000000000000000000000000000000000000000000000000000600052601260045260246000fd5b6118e481611835565b81146118ef57600080fd5b50565b6118fb81611847565b811461190657600080fd5b50565b61191281611873565b811461191d57600080fd5b5056fea26469706673582212209de045889e7adbfcbef5568ae23a57071300715f1d08ed7364bacf32d962ac0064736f6c63430008000033",
  "immutableReferences": {},
  "source": "// contracts/LowbMarket.sol\n// SPDX-License-Identifier: MIT\npragma solidity 0.8.0;\n\nimport \"@openzeppelin/contracts/token/ERC20/IERC20.sol\";\n\ncontract ChessContract {\n\n    address public lowbTokenAddress;\n\n    address public owner;\n\n    /* Inverse basis point. */\n    uint public constant INVERSE_BASIS_POINT = 10000;\n    uint public fee;\n\n    struct ChessGame {\n        bool isUsed;\n        bool isPlaying;\n        address redPlayer;\n        address blckPlayer;\n        uint value;\n    }\n\n    mapping (address => uint) public pendingWithdrawals;\n\n    mapping (uint => ChessGame) public playingChessGame;\n    mapping (address => ChessGame) public GamePlayers;\n\n\n    constructor(address lowbToken_) {\n        lowbTokenAddress = lowbToken_;\n        owner = msg.sender;\n        fee = 250;\n    }\n\n    function deposit(uint amount) public {\n        require(amount > 0, \"You deposit nothing!\");\n        IERC20 token = IERC20(lowbTokenAddress);\n        require(token.transferFrom(msg.sender, address(this), amount), \"Lowb transfer failed\");\n        pendingWithdrawals[tx.origin] +=  amount;\n    }\n\n    function withdraw(uint amount) public {\n        require(amount <= pendingWithdrawals[tx.origin], \"amount larger than that pending to withdraw\");  \n        pendingWithdrawals[tx.origin] -= amount;\n        IERC20 token = IERC20(lowbTokenAddress);\n        require(token.transfer(tx.origin, amount), \"Lowb transfer failed\");\n    }\n\n    function _makeDeal(uint amount) private returns (uint) {\n        uint fee_amount = amount / INVERSE_BASIS_POINT * fee;\n        uint actual_amount = amount - fee_amount;\n        require(actual_amount > 0, \"Fees should less than the transaction value.\");\n        pendingWithdrawals[address(this)] += fee_amount;\n        return actual_amount;\n    }\n\n    function createRoom(uint value_) public {\n        require(!GamePlayers[msg.sender].isUsed, \"you are in another room\");\n        ChessGame memory game = ChessGame(true, true, msg.sender, address(0), value_);\n        GamePlayers[msg.sender] = game;\n        pendingWithdrawals[msg.sender] -= value_;\n    }\n\n    function enterRoom(uint gameId, uint value_) public {\n        require(!GamePlayers[msg.sender].isUsed, \"you are in another room!\");\n        require(playingChessGame[gameId].isUsed, \"the room is not exist!\");\n        ChessGame memory game = playingChessGame[gameId];\n        game.blckPlayer = msg.sender;\n        pendingWithdrawals[msg.sender] -= value_;\n        game.value += value_;\n    }\n\n    function gameOver(uint gameId, uint gameResult) public {\n        require(msg.sender == owner, \"Only owner can gameOver!\");\n        ChessGame memory game = playingChessGame[gameId];\n        uint value = game.value;\n        uint deal = _makeDeal(value);\n        uint realValue = value - deal;\n        pendingWithdrawals[game.blckPlayer] += realValue;\n        game.isPlaying = false;\n        game.value = 0;\n    }\n\n\n\n    function pullFunds() public {\n        require(msg.sender == owner, \"Only owner can pull the funds!\");\n        IERC20 lowb = IERC20(lowbTokenAddress);\n        lowb.transfer(msg.sender, pendingWithdrawals[address(this)]);\n        pendingWithdrawals[address(this)] = 0;\n    }\n\n}",
  "sourcePath": "/Users/qiuyayong/Workspace/truffle/lowbChessContract/contracts/ChessContract.sol",
  "compiler": {
    "name": "solc",
    "version": "0.8.0+commit.c7dfd78e.Emscripten.clang"
  },
  "schemaVersion": "3.3.4",
  "updatedAt": "2021-07-15T10:22:25.571Z",
  "networkType": "ethereum",
  "devdoc": {
    "kind": "dev",
    "methods": {},
    "version": 1
  },
  "userdoc": {
    "kind": "user",
    "methods": {},
    "version": 1
  }
}