{
  "contractName": "ChessContract",
  "abi": [
    {
      "inputs": [
        {
          "internalType": "address",
          "name": "lowbToken_",
          "type": "address"
        }
      ],
      "stateMutability": "nonpayable",
      "type": "constructor"
    },
    {
      "anonymous": false,
      "inputs": [
        {
          "indexed": true,
          "internalType": "uint256",
          "name": "gameId",
          "type": "uint256"
        },
        {
          "indexed": true,
          "internalType": "address",
          "name": "redAddress",
          "type": "address"
        },
        {
          "indexed": true,
          "internalType": "address",
          "name": "blackAddress",
          "type": "address"
        },
        {
          "indexed": false,
          "internalType": "bool",
          "name": "changeSuccess",
          "type": "bool"
        },
        {
          "indexed": false,
          "internalType": "uint256",
          "name": "eatPieceId",
          "type": "uint256"
        }
      ],
      "name": "GameChange",
      "type": "event"
    },
    {
      "anonymous": false,
      "inputs": [
        {
          "indexed": true,
          "internalType": "uint256",
          "name": "gameId",
          "type": "uint256"
        },
        {
          "indexed": true,
          "internalType": "address",
          "name": "redAddress",
          "type": "address"
        },
        {
          "indexed": true,
          "internalType": "address",
          "name": "blackAddress",
          "type": "address"
        },
        {
          "indexed": false,
          "internalType": "address",
          "name": "winner",
          "type": "address"
        },
        {
          "indexed": false,
          "internalType": "bool",
          "name": "gameOver",
          "type": "bool"
        },
        {
          "indexed": false,
          "internalType": "bool",
          "name": "changeSuccess",
          "type": "bool"
        },
        {
          "indexed": false,
          "internalType": "uint256",
          "name": "eatPieceId",
          "type": "uint256"
        }
      ],
      "name": "GameOver",
      "type": "event"
    },
    {
      "anonymous": false,
      "inputs": [
        {
          "indexed": true,
          "internalType": "uint256",
          "name": "gameId",
          "type": "uint256"
        },
        {
          "indexed": false,
          "internalType": "address",
          "name": "redAddress",
          "type": "address"
        },
        {
          "indexed": false,
          "internalType": "address",
          "name": "blackAddress",
          "type": "address"
        },
        {
          "indexed": false,
          "internalType": "uint256",
          "name": "value",
          "type": "uint256"
        }
      ],
      "name": "GameStart",
      "type": "event"
    },
    {
      "inputs": [
        {
          "internalType": "address",
          "name": "",
          "type": "address"
        }
      ],
      "name": "GamePlayers",
      "outputs": [
        {
          "internalType": "bool",
          "name": "isPlaying",
          "type": "bool"
        },
        {
          "internalType": "uint256",
          "name": "gameId",
          "type": "uint256"
        },
        {
          "internalType": "address",
          "name": "redPlayer",
          "type": "address"
        },
        {
          "internalType": "address",
          "name": "blackPlayer",
          "type": "address"
        },
        {
          "internalType": "uint256",
          "name": "value",
          "type": "uint256"
        },
        {
          "internalType": "contract OneChess",
          "name": "oneChess",
          "type": "address"
        }
      ],
      "stateMutability": "view",
      "type": "function"
    },
    {
      "inputs": [],
      "name": "lowbTokenAddress",
      "outputs": [
        {
          "internalType": "address",
          "name": "",
          "type": "address"
        }
      ],
      "stateMutability": "view",
      "type": "function"
    },
    {
      "inputs": [],
      "name": "owner",
      "outputs": [
        {
          "internalType": "address",
          "name": "",
          "type": "address"
        }
      ],
      "stateMutability": "view",
      "type": "function"
    },
    {
      "inputs": [],
      "name": "penddingChess10K",
      "outputs": [
        {
          "internalType": "bool",
          "name": "exist",
          "type": "bool"
        },
        {
          "internalType": "address",
          "name": "redPlayer",
          "type": "address"
        },
        {
          "internalType": "address",
          "name": "blackPlayer",
          "type": "address"
        }
      ],
      "stateMutability": "view",
      "type": "function"
    },
    {
      "inputs": [],
      "name": "penddingChess30K",
      "outputs": [
        {
          "internalType": "bool",
          "name": "exist",
          "type": "bool"
        },
        {
          "internalType": "address",
          "name": "redPlayer",
          "type": "address"
        },
        {
          "internalType": "address",
          "name": "blackPlayer",
          "type": "address"
        }
      ],
      "stateMutability": "view",
      "type": "function"
    },
    {
      "inputs": [],
      "name": "penddingChess50K",
      "outputs": [
        {
          "internalType": "bool",
          "name": "exist",
          "type": "bool"
        },
        {
          "internalType": "address",
          "name": "redPlayer",
          "type": "address"
        },
        {
          "internalType": "address",
          "name": "blackPlayer",
          "type": "address"
        }
      ],
      "stateMutability": "view",
      "type": "function"
    },
    {
      "inputs": [
        {
          "internalType": "address",
          "name": "",
          "type": "address"
        }
      ],
      "name": "pendingWithdrawals",
      "outputs": [
        {
          "internalType": "uint256",
          "name": "",
          "type": "uint256"
        }
      ],
      "stateMutability": "view",
      "type": "function"
    },
    {
      "inputs": [
        {
          "internalType": "uint256",
          "name": "",
          "type": "uint256"
        }
      ],
      "name": "playingChessGame",
      "outputs": [
        {
          "internalType": "bool",
          "name": "isPlaying",
          "type": "bool"
        },
        {
          "internalType": "uint256",
          "name": "gameId",
          "type": "uint256"
        },
        {
          "internalType": "address",
          "name": "redPlayer",
          "type": "address"
        },
        {
          "internalType": "address",
          "name": "blackPlayer",
          "type": "address"
        },
        {
          "internalType": "uint256",
          "name": "value",
          "type": "uint256"
        },
        {
          "internalType": "contract OneChess",
          "name": "oneChess",
          "type": "address"
        }
      ],
      "stateMutability": "view",
      "type": "function"
    },
    {
      "inputs": [
        {
          "internalType": "uint256",
          "name": "amount",
          "type": "uint256"
        }
      ],
      "name": "deposit",
      "outputs": [],
      "stateMutability": "nonpayable",
      "type": "function"
    },
    {
      "inputs": [
        {
          "internalType": "uint256",
          "name": "amount",
          "type": "uint256"
        }
      ],
      "name": "withdraw",
      "outputs": [],
      "stateMutability": "nonpayable",
      "type": "function"
    },
    {
      "inputs": [
        {
          "internalType": "uint256",
          "name": "value_",
          "type": "uint256"
        }
      ],
      "name": "startPlayGame",
      "outputs": [
        {
          "internalType": "uint256",
          "name": "",
          "type": "uint256"
        }
      ],
      "stateMutability": "nonpayable",
      "type": "function"
    },
    {
      "inputs": [
        {
          "internalType": "uint256",
          "name": "pieceId",
          "type": "uint256"
        },
        {
          "internalType": "uint256",
          "name": "x",
          "type": "uint256"
        },
        {
          "internalType": "uint256",
          "name": "y",
          "type": "uint256"
        }
      ],
      "name": "chageGame",
      "outputs": [],
      "stateMutability": "nonpayable",
      "type": "function"
    },
    {
      "inputs": [
        {
          "internalType": "uint256",
          "name": "gameId",
          "type": "uint256"
        },
        {
          "internalType": "address",
          "name": "winner",
          "type": "address"
        }
      ],
      "name": "gameOverConfirm",
      "outputs": [],
      "stateMutability": "nonpayable",
      "type": "function"
    },
    {
      "inputs": [],
      "name": "pullFunds",
      "outputs": [],
      "stateMutability": "nonpayable",
      "type": "function"
    }
  ],
  "bytecode": "0x608060405260646003553480156200001657600080fd5b506040516200df003803806200df0083398181016040528101906200003c9190620000e3565b806000806101000a81548173ffffffffffffffffffffffffffffffffffffffff021916908373ffffffffffffffffffffffffffffffffffffffff16021790555033600160006101000a81548173ffffffffffffffffffffffffffffffffffffffff021916908373ffffffffffffffffffffffffffffffffffffffff16021790555060fa600281905550506200015d565b600081519050620000dd8162000143565b92915050565b600060208284031215620000f657600080fd5b60006200010684828501620000cc565b91505092915050565b60006200011c8262000123565b9050919050565b600073ffffffffffffffffffffffffffffffffffffffff82169050919050565b6200014e816200010f565b81146200015a57600080fd5b50565b61dd93806200016d6000396000f3fe60806040523480156200001157600080fd5b5060043610620001005760003560e01c806377f80c821162000099578063b6b55f25116200006f578063b6b55f251462000286578063e43a0bb214620002a6578063ec844c1314620002b2578063f3f4370314620002ed5762000100565b806377f80c8214620002205780638da5cb5b1462000244578063a020b0b414620002665762000100565b80635aea45fe11620000db5780635aea45fe146200018457806368249dcb14620001ba5780637017750814620001dc578063726191e214620002005762000100565b80631ff764a114620001055780632e1a7d4d146200012957806353defe001462000149575b600080fd5b6200010f62000323565b604051620001209392919062003ca6565b60405180910390f35b62000147600480360381019062000141919062003757565b62000388565b005b62000167600480360381019062000161919062003664565b62000564565b6040516200017b9695949392919062003d10565b60405180910390f35b620001a260048036038101906200019c919062003757565b6200060d565b604051620001b1919062003ef5565b60405180910390f35b620001c4620026dd565b604051620001d3919062003ba5565b60405180910390f35b620001e662002701565b604051620001f79392919062003ca6565b60405180910390f35b6200021e600480360381019062000218919062003783565b62002766565b005b6200022a62002bcf565b6040516200023b9392919062003ca6565b60405180910390f35b6200024e62002c34565b6040516200025d919062003ba5565b60405180910390f35b6200028460048036038101906200027e9190620037c4565b62002c5a565b005b620002a460048036038101906200029e919062003757565b6200305f565b005b620002b0620031fe565b005b620002d06004803603810190620002ca919062003757565b620033d2565b604051620002e49695949392919062003d10565b60405180910390f35b6200030b600480360381019062000305919062003664565b6200347b565b6040516200031a919062003ef5565b60405180910390f35b60088060000160009054906101000a900460ff16908060000160019054906101000a900473ffffffffffffffffffffffffffffffffffffffff16908060010160009054906101000a900473ffffffffffffffffffffffffffffffffffffffff16905083565b600a60003273ffffffffffffffffffffffffffffffffffffffff1673ffffffffffffffffffffffffffffffffffffffff168152602001908152602001600020548111156200040d576040517f08c379a0000000000000000000000000000000000000000000000000000000008152600401620004049062003da1565b60405180910390fd5b80600a60003273ffffffffffffffffffffffffffffffffffffffff1673ffffffffffffffffffffffffffffffffffffffff16815260200190815260200160002060008282546200045e9190620040c8565b9250508190555060008060009054906101000a900473ffffffffffffffffffffffffffffffffffffffff1690508073ffffffffffffffffffffffffffffffffffffffff1663a9059cbb32846040518363ffffffff1660e01b8152600401620004c892919062003c79565b602060405180830381600087803b158015620004e357600080fd5b505af1158015620004f8573d6000803e3d6000fd5b505050506040513d601f19601f820116820180604052508101906200051e919062003690565b62000560576040517f08c379a0000000000000000000000000000000000000000000000000000000008152600401620005579062003e4b565b60405180910390fd5b5050565b600c6020528060005260406000206000915090508060000160009054906101000a900460ff16908060010154908060020160009054906101000a900473ffffffffffffffffffffffffffffffffffffffff16908060030160009054906101000a900473ffffffffffffffffffffffffffffffffffffffff16908060040154908060050160009054906101000a900473ffffffffffffffffffffffffffffffffffffffff16905086565b6000600c60003373ffffffffffffffffffffffffffffffffffffffff1673ffffffffffffffffffffffffffffffffffffffff16815260200190815260200160002060000160009054906101000a900460ff1615620006a2576040517f08c379a0000000000000000000000000000000000000000000000000000000008152600401620006999062003eb1565b60405180910390fd5b600a60003373ffffffffffffffffffffffffffffffffffffffff1673ffffffffffffffffffffffffffffffffffffffff1681526020019081526020016000205482111562000727576040517f08c379a00000000000000000000000000000000000000000000000000000000081526004016200071e9062003e29565b60405180910390fd5b61271082148062000739575061753082145b8062000746575061c35082145b62000788576040517f08c379a00000000000000000000000000000000000000000000000000000000081526004016200077f9062003de5565b60405180910390fd5b81600a60003373ffffffffffffffffffffffffffffffffffffffff1673ffffffffffffffffffffffffffffffffffffffff1681526020019081526020016000206000828254620007d99190620040c8565b925050819055506127108214156200123257600460000160009054906101000a900460ff16156200112d5733600460010160006101000a81548173ffffffffffffffffffffffffffffffffffffffff021916908373ffffffffffffffffffffffffffffffffffffffff160217905550600360008154809291906200085d90620041ab565b9190505550600660000160019054906101000a900473ffffffffffffffffffffffffffffffffffffffff16600660010160009054906101000a900473ffffffffffffffffffffffffffffffffffffffff16604051620008bc9062003571565b620008c992919062003bc2565b604051809103906000f080158015620008e6573d6000803e3d6000fd5b50601360006101000a81548173ffffffffffffffffffffffffffffffffffffffff021916908373ffffffffffffffffffffffffffffffffffffffff1602179055506040518060c001604052806001151581526020016003548152602001600460000160019054906101000a900473ffffffffffffffffffffffffffffffffffffffff1673ffffffffffffffffffffffffffffffffffffffff168152602001600460010160009054906101000a900473ffffffffffffffffffffffffffffffffffffffff1673ffffffffffffffffffffffffffffffffffffffff168152602001600284620009d4919062004067565b8152602001601360009054906101000a900473ffffffffffffffffffffffffffffffffffffffff1673ffffffffffffffffffffffffffffffffffffffff16815250600d60008201518160000160006101000a81548160ff0219169083151502179055506020820151816001015560408201518160020160006101000a81548173ffffffffffffffffffffffffffffffffffffffff021916908373ffffffffffffffffffffffffffffffffffffffff16021790555060608201518160030160006101000a81548173ffffffffffffffffffffffffffffffffffffffff021916908373ffffffffffffffffffffffffffffffffffffffff1602179055506080820151816004015560a08201518160050160006101000a81548173ffffffffffffffffffffffffffffffffffffffff021916908373ffffffffffffffffffffffffffffffffffffffff160217905550905050600d600c6000600460000160019054906101000a900473ffffffffffffffffffffffffffffffffffffffff1673ffffffffffffffffffffffffffffffffffffffff1673ffffffffffffffffffffffffffffffffffffffff1681526020019081526020016000206000820160009054906101000a900460ff168160000160006101000a81548160ff021916908315150217905550600182015481600101556002820160009054906101000a900473ffffffffffffffffffffffffffffffffffffffff168160020160006101000a81548173ffffffffffffffffffffffffffffffffffffffff021916908373ffffffffffffffffffffffffffffffffffffffff1602179055506003820160009054906101000a900473ffffffffffffffffffffffffffffffffffffffff168160030160006101000a81548173ffffffffffffffffffffffffffffffffffffffff021916908373ffffffffffffffffffffffffffffffffffffffff160217905550600482015481600401556005820160009054906101000a900473ffffffffffffffffffffffffffffffffffffffff168160050160006101000a81548173ffffffffffffffffffffffffffffffffffffffff021916908373ffffffffffffffffffffffffffffffffffffffff160217905550905050600d600c6000600460010160009054906101000a900473ffffffffffffffffffffffffffffffffffffffff1673ffffffffffffffffffffffffffffffffffffffff1673ffffffffffffffffffffffffffffffffffffffff1681526020019081526020016000206000820160009054906101000a900460ff168160000160006101000a81548160ff021916908315150217905550600182015481600101556002820160009054906101000a900473ffffffffffffffffffffffffffffffffffffffff168160020160006101000a81548173ffffffffffffffffffffffffffffffffffffffff021916908373ffffffffffffffffffffffffffffffffffffffff1602179055506003820160009054906101000a900473ffffffffffffffffffffffffffffffffffffffff168160030160006101000a81548173ffffffffffffffffffffffffffffffffffffffff021916908373ffffffffffffffffffffffffffffffffffffffff160217905550600482015481600401556005820160009054906101000a900473ffffffffffffffffffffffffffffffffffffffff168160050160006101000a81548173ffffffffffffffffffffffffffffffffffffffff021916908373ffffffffffffffffffffffffffffffffffffffff1602179055509050506000600460000160006101000a81548160ff021916908315150217905550600d600b600060035481526020019081526020016000206000820160009054906101000a900460ff168160000160006101000a81548160ff021916908315150217905550600182015481600101556002820160009054906101000a900473ffffffffffffffffffffffffffffffffffffffff168160020160006101000a81548173ffffffffffffffffffffffffffffffffffffffff021916908373ffffffffffffffffffffffffffffffffffffffff1602179055506003820160009054906101000a900473ffffffffffffffffffffffffffffffffffffffff168160030160006101000a81548173ffffffffffffffffffffffffffffffffffffffff021916908373ffffffffffffffffffffffffffffffffffffffff160217905550600482015481600401556005820160009054906101000a900473ffffffffffffffffffffffffffffffffffffffff168160050160006101000a81548173ffffffffffffffffffffffffffffffffffffffff021916908373ffffffffffffffffffffffffffffffffffffffff1602179055509050506003547f8e60c27747132958a112b08e4e90b654b44711a55aa76b322734c05cba109862600460000160019054906101000a900473ffffffffffffffffffffffffffffffffffffffff16600460010160009054906101000a900473ffffffffffffffffffffffffffffffffffffffff166002866200110e919062004067565b6040516200111f9392919062003bef565b60405180910390a26200122c565b60405180606001604052806001151581526020013373ffffffffffffffffffffffffffffffffffffffff168152602001600073ffffffffffffffffffffffffffffffffffffffff16815250600460008201518160000160006101000a81548160ff02191690831515021790555060208201518160000160016101000a81548173ffffffffffffffffffffffffffffffffffffffff021916908373ffffffffffffffffffffffffffffffffffffffff16021790555060408201518160010160006101000a81548173ffffffffffffffffffffffffffffffffffffffff021916908373ffffffffffffffffffffffffffffffffffffffff1602179055509050505b620026d3565b61753082141562001c8457600660000160009054906101000a900460ff161562001b7f5733600660010160006101000a81548173ffffffffffffffffffffffffffffffffffffffff021916908373ffffffffffffffffffffffffffffffffffffffff16021790555060036000815480929190620012af90620041ab565b9190505550600660000160019054906101000a900473ffffffffffffffffffffffffffffffffffffffff16600660010160009054906101000a900473ffffffffffffffffffffffffffffffffffffffff166040516200130e9062003571565b6200131b92919062003bc2565b604051809103906000f08015801562001338573d6000803e3d6000fd5b50601360006101000a81548173ffffffffffffffffffffffffffffffffffffffff021916908373ffffffffffffffffffffffffffffffffffffffff1602179055506040518060c001604052806001151581526020016003548152602001600660000160019054906101000a900473ffffffffffffffffffffffffffffffffffffffff1673ffffffffffffffffffffffffffffffffffffffff168152602001600660010160009054906101000a900473ffffffffffffffffffffffffffffffffffffffff1673ffffffffffffffffffffffffffffffffffffffff16815260200160028462001426919062004067565b8152602001601360009054906101000a900473ffffffffffffffffffffffffffffffffffffffff1673ffffffffffffffffffffffffffffffffffffffff16815250600d60008201518160000160006101000a81548160ff0219169083151502179055506020820151816001015560408201518160020160006101000a81548173ffffffffffffffffffffffffffffffffffffffff021916908373ffffffffffffffffffffffffffffffffffffffff16021790555060608201518160030160006101000a81548173ffffffffffffffffffffffffffffffffffffffff021916908373ffffffffffffffffffffffffffffffffffffffff1602179055506080820151816004015560a08201518160050160006101000a81548173ffffffffffffffffffffffffffffffffffffffff021916908373ffffffffffffffffffffffffffffffffffffffff160217905550905050600d600c6000600660000160019054906101000a900473ffffffffffffffffffffffffffffffffffffffff1673ffffffffffffffffffffffffffffffffffffffff1673ffffffffffffffffffffffffffffffffffffffff1681526020019081526020016000206000820160009054906101000a900460ff168160000160006101000a81548160ff021916908315150217905550600182015481600101556002820160009054906101000a900473ffffffffffffffffffffffffffffffffffffffff168160020160006101000a81548173ffffffffffffffffffffffffffffffffffffffff021916908373ffffffffffffffffffffffffffffffffffffffff1602179055506003820160009054906101000a900473ffffffffffffffffffffffffffffffffffffffff168160030160006101000a81548173ffffffffffffffffffffffffffffffffffffffff021916908373ffffffffffffffffffffffffffffffffffffffff160217905550600482015481600401556005820160009054906101000a900473ffffffffffffffffffffffffffffffffffffffff168160050160006101000a81548173ffffffffffffffffffffffffffffffffffffffff021916908373ffffffffffffffffffffffffffffffffffffffff160217905550905050600d600c6000600660010160009054906101000a900473ffffffffffffffffffffffffffffffffffffffff1673ffffffffffffffffffffffffffffffffffffffff1673ffffffffffffffffffffffffffffffffffffffff1681526020019081526020016000206000820160009054906101000a900460ff168160000160006101000a81548160ff021916908315150217905550600182015481600101556002820160009054906101000a900473ffffffffffffffffffffffffffffffffffffffff168160020160006101000a81548173ffffffffffffffffffffffffffffffffffffffff021916908373ffffffffffffffffffffffffffffffffffffffff1602179055506003820160009054906101000a900473ffffffffffffffffffffffffffffffffffffffff168160030160006101000a81548173ffffffffffffffffffffffffffffffffffffffff021916908373ffffffffffffffffffffffffffffffffffffffff160217905550600482015481600401556005820160009054906101000a900473ffffffffffffffffffffffffffffffffffffffff168160050160006101000a81548173ffffffffffffffffffffffffffffffffffffffff021916908373ffffffffffffffffffffffffffffffffffffffff1602179055509050506000600660000160006101000a81548160ff021916908315150217905550600d600b600060035481526020019081526020016000206000820160009054906101000a900460ff168160000160006101000a81548160ff021916908315150217905550600182015481600101556002820160009054906101000a900473ffffffffffffffffffffffffffffffffffffffff168160020160006101000a81548173ffffffffffffffffffffffffffffffffffffffff021916908373ffffffffffffffffffffffffffffffffffffffff1602179055506003820160009054906101000a900473ffffffffffffffffffffffffffffffffffffffff168160030160006101000a81548173ffffffffffffffffffffffffffffffffffffffff021916908373ffffffffffffffffffffffffffffffffffffffff160217905550600482015481600401556005820160009054906101000a900473ffffffffffffffffffffffffffffffffffffffff168160050160006101000a81548173ffffffffffffffffffffffffffffffffffffffff021916908373ffffffffffffffffffffffffffffffffffffffff1602179055509050506003547f8e60c27747132958a112b08e4e90b654b44711a55aa76b322734c05cba109862600660000160019054906101000a900473ffffffffffffffffffffffffffffffffffffffff16600660010160009054906101000a900473ffffffffffffffffffffffffffffffffffffffff1660028662001b60919062004067565b60405162001b719392919062003bef565b60405180910390a262001c7e565b60405180606001604052806001151581526020013373ffffffffffffffffffffffffffffffffffffffff168152602001600073ffffffffffffffffffffffffffffffffffffffff16815250600660008201518160000160006101000a81548160ff02191690831515021790555060208201518160000160016101000a81548173ffffffffffffffffffffffffffffffffffffffff021916908373ffffffffffffffffffffffffffffffffffffffff16021790555060408201518160010160006101000a81548173ffffffffffffffffffffffffffffffffffffffff021916908373ffffffffffffffffffffffffffffffffffffffff1602179055509050505b620026d2565b61c350821415620026d157600860000160009054906101000a900460ff1615620025d15733600860010160006101000a81548173ffffffffffffffffffffffffffffffffffffffff021916908373ffffffffffffffffffffffffffffffffffffffff1602179055506003600081548092919062001d0190620041ab565b9190505550600660000160019054906101000a900473ffffffffffffffffffffffffffffffffffffffff16600660010160009054906101000a900473ffffffffffffffffffffffffffffffffffffffff1660405162001d609062003571565b62001d6d92919062003bc2565b604051809103906000f08015801562001d8a573d6000803e3d6000fd5b50601360006101000a81548173ffffffffffffffffffffffffffffffffffffffff021916908373ffffffffffffffffffffffffffffffffffffffff1602179055506040518060c001604052806001151581526020016003548152602001600860000160019054906101000a900473ffffffffffffffffffffffffffffffffffffffff1673ffffffffffffffffffffffffffffffffffffffff168152602001600860010160009054906101000a900473ffffffffffffffffffffffffffffffffffffffff1673ffffffffffffffffffffffffffffffffffffffff16815260200160028462001e78919062004067565b8152602001601360009054906101000a900473ffffffffffffffffffffffffffffffffffffffff1673ffffffffffffffffffffffffffffffffffffffff16815250600d60008201518160000160006101000a81548160ff0219169083151502179055506020820151816001015560408201518160020160006101000a81548173ffffffffffffffffffffffffffffffffffffffff021916908373ffffffffffffffffffffffffffffffffffffffff16021790555060608201518160030160006101000a81548173ffffffffffffffffffffffffffffffffffffffff021916908373ffffffffffffffffffffffffffffffffffffffff1602179055506080820151816004015560a08201518160050160006101000a81548173ffffffffffffffffffffffffffffffffffffffff021916908373ffffffffffffffffffffffffffffffffffffffff160217905550905050600d600c6000600460000160019054906101000a900473ffffffffffffffffffffffffffffffffffffffff1673ffffffffffffffffffffffffffffffffffffffff1673ffffffffffffffffffffffffffffffffffffffff1681526020019081526020016000206000820160009054906101000a900460ff168160000160006101000a81548160ff021916908315150217905550600182015481600101556002820160009054906101000a900473ffffffffffffffffffffffffffffffffffffffff168160020160006101000a81548173ffffffffffffffffffffffffffffffffffffffff021916908373ffffffffffffffffffffffffffffffffffffffff1602179055506003820160009054906101000a900473ffffffffffffffffffffffffffffffffffffffff168160030160006101000a81548173ffffffffffffffffffffffffffffffffffffffff021916908373ffffffffffffffffffffffffffffffffffffffff160217905550600482015481600401556005820160009054906101000a900473ffffffffffffffffffffffffffffffffffffffff168160050160006101000a81548173ffffffffffffffffffffffffffffffffffffffff021916908373ffffffffffffffffffffffffffffffffffffffff160217905550905050600d600c6000600460010160009054906101000a900473ffffffffffffffffffffffffffffffffffffffff1673ffffffffffffffffffffffffffffffffffffffff1673ffffffffffffffffffffffffffffffffffffffff1681526020019081526020016000206000820160009054906101000a900460ff168160000160006101000a81548160ff021916908315150217905550600182015481600101556002820160009054906101000a900473ffffffffffffffffffffffffffffffffffffffff168160020160006101000a81548173ffffffffffffffffffffffffffffffffffffffff021916908373ffffffffffffffffffffffffffffffffffffffff1602179055506003820160009054906101000a900473ffffffffffffffffffffffffffffffffffffffff168160030160006101000a81548173ffffffffffffffffffffffffffffffffffffffff021916908373ffffffffffffffffffffffffffffffffffffffff160217905550600482015481600401556005820160009054906101000a900473ffffffffffffffffffffffffffffffffffffffff168160050160006101000a81548173ffffffffffffffffffffffffffffffffffffffff021916908373ffffffffffffffffffffffffffffffffffffffff1602179055509050506000600460000160006101000a81548160ff021916908315150217905550600d600b600060035481526020019081526020016000206000820160009054906101000a900460ff168160000160006101000a81548160ff021916908315150217905550600182015481600101556002820160009054906101000a900473ffffffffffffffffffffffffffffffffffffffff168160020160006101000a81548173ffffffffffffffffffffffffffffffffffffffff021916908373ffffffffffffffffffffffffffffffffffffffff1602179055506003820160009054906101000a900473ffffffffffffffffffffffffffffffffffffffff168160030160006101000a81548173ffffffffffffffffffffffffffffffffffffffff021916908373ffffffffffffffffffffffffffffffffffffffff160217905550600482015481600401556005820160009054906101000a900473ffffffffffffffffffffffffffffffffffffffff168160050160006101000a81548173ffffffffffffffffffffffffffffffffffffffff021916908373ffffffffffffffffffffffffffffffffffffffff1602179055509050506003547f8e60c27747132958a112b08e4e90b654b44711a55aa76b322734c05cba109862600860000160019054906101000a900473ffffffffffffffffffffffffffffffffffffffff16600860010160009054906101000a900473ffffffffffffffffffffffffffffffffffffffff16600286620025b2919062004067565b604051620025c39392919062003bef565b60405180910390a2620026d0565b60405180606001604052806001151581526020013373ffffffffffffffffffffffffffffffffffffffff168152602001600073ffffffffffffffffffffffffffffffffffffffff16815250600460008201518160000160006101000a81548160ff02191690831515021790555060208201518160000160016101000a81548173ffffffffffffffffffffffffffffffffffffffff021916908373ffffffffffffffffffffffffffffffffffffffff16021790555060408201518160010160006101000a81548173ffffffffffffffffffffffffffffffffffffffff021916908373ffffffffffffffffffffffffffffffffffffffff1602179055509050505b5b5b5b6003549050919050565b60008054906101000a900473ffffffffffffffffffffffffffffffffffffffff1681565b60068060000160009054906101000a900460ff16908060000160019054906101000a900473ffffffffffffffffffffffffffffffffffffffff16908060010160009054906101000a900473ffffffffffffffffffffffffffffffffffffffff16905083565b6000600b60008481526020019081526020016000206040518060c00160405290816000820160009054906101000a900460ff16151515158152602001600182015481526020016002820160009054906101000a900473ffffffffffffffffffffffffffffffffffffffff1673ffffffffffffffffffffffffffffffffffffffff1673ffffffffffffffffffffffffffffffffffffffff1681526020016003820160009054906101000a900473ffffffffffffffffffffffffffffffffffffffff1673ffffffffffffffffffffffffffffffffffffffff1673ffffffffffffffffffffffffffffffffffffffff168152602001600482015481526020016005820160009054906101000a900473ffffffffffffffffffffffffffffffffffffffff1673ffffffffffffffffffffffffffffffffffffffff1673ffffffffffffffffffffffffffffffffffffffff16815250509050600160009054906101000a900473ffffffffffffffffffffffffffffffffffffffff1673ffffffffffffffffffffffffffffffffffffffff163273ffffffffffffffffffffffffffffffffffffffff161480620029455750806040015173ffffffffffffffffffffffffffffffffffffffff163273ffffffffffffffffffffffffffffffffffffffff16145b80620029805750806060015173ffffffffffffffffffffffffffffffffffffffff163273ffffffffffffffffffffffffffffffffffffffff16145b620029c2576040517f08c379a0000000000000000000000000000000000000000000000000000000008152600401620029b99062003e6d565b60405180910390fd5b6000816080015190506000620029d88262003493565b905060008183620029ea9190620040c8565b905080600a60008773ffffffffffffffffffffffffffffffffffffffff1673ffffffffffffffffffffffffffffffffffffffff168152602001908152602001600020600082825462002a3d919062003fd2565b9250508190555081600a6000600160009054906101000a900473ffffffffffffffffffffffffffffffffffffffff1673ffffffffffffffffffffffffffffffffffffffff1673ffffffffffffffffffffffffffffffffffffffff168152602001908152602001600020600082825462002ab7919062003fd2565b925050819055506000600b600088815260200190815260200160002060000160006101000a81548160ff0219169083151502179055506000600c6000866040015173ffffffffffffffffffffffffffffffffffffffff1673ffffffffffffffffffffffffffffffffffffffff16815260200190815260200160002060000160006101000a81548160ff0219169083151502179055506000600c6000866060015173ffffffffffffffffffffffffffffffffffffffff1673ffffffffffffffffffffffffffffffffffffffff16815260200190815260200160002060000160006101000a81548160ff0219169083151502179055506000600b600088815260200190815260200160002060040181905550505050505050565b60048060000160009054906101000a900460ff16908060000160019054906101000a900473ffffffffffffffffffffffffffffffffffffffff16908060010160009054906101000a900473ffffffffffffffffffffffffffffffffffffffff16905083565b600160009054906101000a900473ffffffffffffffffffffffffffffffffffffffff1681565b600c60003273ffffffffffffffffffffffffffffffffffffffff1673ffffffffffffffffffffffffffffffffffffffff16815260200190815260200160002060000160009054906101000a900460ff1662002cec576040517f08c379a000000000000000000000000000000000000000000000000000000000815260040162002ce39062003dc3565b60405180910390fd5b6000806060600080600c60003273ffffffffffffffffffffffffffffffffffffffff1673ffffffffffffffffffffffffffffffffffffffff16815260200190815260200160002060050160009054906101000a900473ffffffffffffffffffffffffffffffffffffffff1673ffffffffffffffffffffffffffffffffffffffff1663386bba368989896040518463ffffffff1660e01b815260040162002d959392919062003f12565b600060405180830381600087803b15801562002db057600080fd5b505af115801562002dc5573d6000803e3d6000fd5b505050506040513d6000823e3d601f19601f8201168201806040525081019062002df09190620036bc565b80955081965082975083985084995050505050506000600c60003273ffffffffffffffffffffffffffffffffffffffff1673ffffffffffffffffffffffffffffffffffffffff1681526020019081526020016000206001015490506000600c60003273ffffffffffffffffffffffffffffffffffffffff1673ffffffffffffffffffffffffffffffffffffffff16815260200190815260200160002060020160009054906101000a900473ffffffffffffffffffffffffffffffffffffffff1690506000600c60003273ffffffffffffffffffffffffffffffffffffffff1673ffffffffffffffffffffffffffffffffffffffff16815260200190815260200160002060030160009054906101000a900473ffffffffffffffffffffffffffffffffffffffff16905087869062002f5f576040517f08c379a000000000000000000000000000000000000000000000000000000000815260040162002f56919062003d7d565b60405180910390fd5b50861562002fe75762002f73838662002766565b8073ffffffffffffffffffffffffffffffffffffffff168273ffffffffffffffffffffffffffffffffffffffff16847ff46ba1828bda78ce135e3d181c36086a1bc67b967c87d0ea368c441934897e4a888b8d8a60405162002fd9949392919062003c2c565b60405180910390a462003052565b8073ffffffffffffffffffffffffffffffffffffffff168273ffffffffffffffffffffffffffffffffffffffff16847fa33bd106a25a35ccd95cc97257983d3efe2197b94b3b14de5a9010e19e0c4bbc8b886040516200304992919062003ce3565b60405180910390a45b5050505050505050505050565b60008111620030a5576040517f08c379a00000000000000000000000000000000000000000000000000000000081526004016200309c9062003ed3565b60405180910390fd5b60008060009054906101000a900473ffffffffffffffffffffffffffffffffffffffff1690508073ffffffffffffffffffffffffffffffffffffffff166323b872dd3230856040518463ffffffff1660e01b81526004016200310a9392919062003bef565b602060405180830381600087803b1580156200312557600080fd5b505af11580156200313a573d6000803e3d6000fd5b505050506040513d601f19601f8201168201806040525081019062003160919062003690565b620031a2576040517f08c379a0000000000000000000000000000000000000000000000000000000008152600401620031999062003e4b565b60405180910390fd5b81600a60003273ffffffffffffffffffffffffffffffffffffffff1673ffffffffffffffffffffffffffffffffffffffff1681526020019081526020016000206000828254620031f3919062003fd2565b925050819055505050565b600160009054906101000a900473ffffffffffffffffffffffffffffffffffffffff1673ffffffffffffffffffffffffffffffffffffffff163273ffffffffffffffffffffffffffffffffffffffff161462003291576040517f08c379a0000000000000000000000000000000000000000000000000000000008152600401620032889062003e07565b60405180910390fd5b60008060009054906101000a900473ffffffffffffffffffffffffffffffffffffffff1690508073ffffffffffffffffffffffffffffffffffffffff1663a9059cbb33600a60003073ffffffffffffffffffffffffffffffffffffffff1673ffffffffffffffffffffffffffffffffffffffff168152602001908152602001600020546040518363ffffffff1660e01b81526004016200333392919062003c79565b602060405180830381600087803b1580156200334e57600080fd5b505af115801562003363573d6000803e3d6000fd5b505050506040513d601f19601f8201168201806040525081019062003389919062003690565b506000600a60003073ffffffffffffffffffffffffffffffffffffffff1673ffffffffffffffffffffffffffffffffffffffff1681526020019081526020016000208190555050565b600b6020528060005260406000206000915090508060000160009054906101000a900460ff16908060010154908060020160009054906101000a900473ffffffffffffffffffffffffffffffffffffffff16908060030160009054906101000a900473ffffffffffffffffffffffffffffffffffffffff16908060040154908060050160009054906101000a900473ffffffffffffffffffffffffffffffffffffffff16905086565b600a6020528060005260406000206000915090505481565b60008060025461271084620034a991906200402f565b620034b5919062004067565b905060008184620034c79190620040c8565b9050600081116200350f576040517f08c379a0000000000000000000000000000000000000000000000000000000008152600401620035069062003e8f565b60405180910390fd5b81600a60003073ffffffffffffffffffffffffffffffffffffffff1673ffffffffffffffffffffffffffffffffffffffff168152602001908152602001600020600082825462003560919062003fd2565b925050819055508092505050919050565b619a7880620042e683390190565b600062003596620035908462003f83565b62003f4f565b905082815260208101848484011115620035af57600080fd5b620035bc84828562004175565b509392505050565b600081359050620035d58162004297565b92915050565b600081519050620035ec8162004297565b92915050565b6000815190506200360381620042b1565b92915050565b600082601f8301126200361b57600080fd5b81516200362d8482602086016200357f565b91505092915050565b6000813590506200364781620042cb565b92915050565b6000815190506200365e81620042cb565b92915050565b6000602082840312156200367757600080fd5b60006200368784828501620035c4565b91505092915050565b600060208284031215620036a357600080fd5b6000620036b384828501620035f2565b91505092915050565b600080600080600060a08688031215620036d557600080fd5b6000620036e588828901620035f2565b9550506020620036f888828901620035f2565b945050604086015167ffffffffffffffff8111156200371657600080fd5b620037248882890162003609565b93505060606200373788828901620035db565b92505060806200374a888289016200364d565b9150509295509295909350565b6000602082840312156200376a57600080fd5b60006200377a8482850162003636565b91505092915050565b600080604083850312156200379757600080fd5b6000620037a78582860162003636565b9250506020620037ba85828601620035c4565b9150509250929050565b600080600060608486031215620037da57600080fd5b6000620037ea8682870162003636565b9350506020620037fd8682870162003636565b9250506040620038108682870162003636565b9150509250925092565b620038258162004103565b82525050565b620038368162004117565b82525050565b62003847816200414d565b82525050565b60006200385a8262003fb6565b62003866818562003fc1565b93506200387881856020860162004175565b620038838162004286565b840191505092915050565b60006200389d602b8362003fc1565b91507f616d6f756e74206c6172676572207468616e20746861742070656e64696e672060008301527f746f2077697468647261770000000000000000000000000000000000000000006020830152604082019050919050565b60006200390560178362003fc1565b91507f706c61796572206973206e6f7420696e2067616d696e670000000000000000006000830152602082019050919050565b600062003947600e8362003fc1565b91507f696e76616c69642076616c75655f0000000000000000000000000000000000006000830152602082019050919050565b60006200398960158362003fc1565b91507f596f7520617265206e6f7420746865206f776e657200000000000000000000006000830152602082019050919050565b6000620039cb60328362003fc1565b91507f706c617965722076616c75655f206c6172676572207468616e2074686174207060008301527f656e64696e6720746f20776974686472617700000000000000000000000000006020830152604082019050919050565b600062003a3360148362003fc1565b91507f4c6f7762207472616e73666572206661696c65640000000000000000000000006000830152602082019050919050565b600062003a7560198362003fc1565b91507f596f752063616e206e6f74206f766572207468652067616d65000000000000006000830152602082019050919050565b600062003ab7602c8362003fc1565b91507f466565732073686f756c64206c657373207468616e20746865207472616e736160008301527f6374696f6e2076616c75652e00000000000000000000000000000000000000006020830152604082019050919050565b600062003b1f60168362003fc1565b91507f706c6179657220696e20616e6f7468657220726f6f6d000000000000000000006000830152602082019050919050565b600062003b6160148362003fc1565b91507f596f75206465706f736974206e6f7468696e67210000000000000000000000006000830152602082019050919050565b62003b9f8162004143565b82525050565b600060208201905062003bbc60008301846200381a565b92915050565b600060408201905062003bd960008301856200381a565b62003be860208301846200381a565b9392505050565b600060608201905062003c0660008301866200381a565b62003c1560208301856200381a565b62003c24604083018462003b94565b949350505050565b600060808201905062003c4360008301876200381a565b62003c5260208301866200382b565b62003c6160408301856200382b565b62003c70606083018462003b94565b95945050505050565b600060408201905062003c9060008301856200381a565b62003c9f602083018462003b94565b9392505050565b600060608201905062003cbd60008301866200382b565b62003ccc60208301856200381a565b62003cdb60408301846200381a565b949350505050565b600060408201905062003cfa60008301856200382b565b62003d09602083018462003b94565b9392505050565b600060c08201905062003d2760008301896200382b565b62003d36602083018862003b94565b62003d4560408301876200381a565b62003d5460608301866200381a565b62003d63608083018562003b94565b62003d7260a08301846200383c565b979650505050505050565b6000602082019050818103600083015262003d9981846200384d565b905092915050565b6000602082019050818103600083015262003dbc816200388e565b9050919050565b6000602082019050818103600083015262003dde81620038f6565b9050919050565b6000602082019050818103600083015262003e008162003938565b9050919050565b6000602082019050818103600083015262003e22816200397a565b9050919050565b6000602082019050818103600083015262003e4481620039bc565b9050919050565b6000602082019050818103600083015262003e668162003a24565b9050919050565b6000602082019050818103600083015262003e888162003a66565b9050919050565b6000602082019050818103600083015262003eaa8162003aa8565b9050919050565b6000602082019050818103600083015262003ecc8162003b10565b9050919050565b6000602082019050818103600083015262003eee8162003b52565b9050919050565b600060208201905062003f0c600083018462003b94565b92915050565b600060608201905062003f29600083018662003b94565b62003f38602083018562003b94565b62003f47604083018462003b94565b949350505050565b6000604051905081810181811067ffffffffffffffff8211171562003f795762003f7862004257565b5b8060405250919050565b600067ffffffffffffffff82111562003fa15762003fa062004257565b5b601f19601f8301169050602081019050919050565b600081519050919050565b600082825260208201905092915050565b600062003fdf8262004143565b915062003fec8362004143565b9250827fffffffffffffffffffffffffffffffffffffffffffffffffffffffffffffffff03821115620040245762004023620041f9565b5b828201905092915050565b60006200403c8262004143565b9150620040498362004143565b9250826200405c576200405b62004228565b5b828204905092915050565b6000620040748262004143565b9150620040818362004143565b9250817fffffffffffffffffffffffffffffffffffffffffffffffffffffffffffffffff0483118215151615620040bd57620040bc620041f9565b5b828202905092915050565b6000620040d58262004143565b9150620040e28362004143565b925082821015620040f857620040f7620041f9565b5b828203905092915050565b6000620041108262004123565b9050919050565b60008115159050919050565b600073ffffffffffffffffffffffffffffffffffffffff82169050919050565b6000819050919050565b60006200415a8262004161565b9050919050565b60006200416e8262004123565b9050919050565b60005b838110156200419557808201518184015260208101905062004178565b83811115620041a5576000848401525b50505050565b6000620041b88262004143565b91507fffffffffffffffffffffffffffffffffffffffffffffffffffffffffffffffff821415620041ee57620041ed620041f9565b5b600182019050919050565b7f4e487b7100000000000000000000000000000000000000000000000000000000600052601160045260246000fd5b7f4e487b7100000000000000000000000000000000000000000000000000000000600052601260045260246000fd5b7f4e487b7100000000000000000000000000000000000000000000000000000000600052604160045260246000fd5b6000601f19601f8301169050919050565b620042a28162004103565b8114620042ae57600080fd5b50565b620042bc8162004117565b8114620042c857600080fd5b50565b620042d68162004143565b8114620042e257600080fd5b5056fe608060405260016000806101000a81548160ff0219169083151502179055503480156200002b57600080fd5b5060405162009a7838038062009a7883398181016040528101906200005191906200194c565b81600060016101000a81548173ffffffffffffffffffffffffffffffffffffffff021916908373ffffffffffffffffffffffffffffffffffffffff16021790555080600160006101000a81548173ffffffffffffffffffffffffffffffffffffffff021916908373ffffffffffffffffffffffffffffffffffffffff160217905550604051806040016040528060048152602001600081525060026000600181526020019081526020016000206000820151816000015560208201518160010155905050600160036000600a811062000153577f4e487b7100000000000000000000000000000000000000000000000000000000600052603260045260246000fd5b6009020160046009811062000191577f4e487b7100000000000000000000000000000000000000000000000000000000600052603260045260246000fd5b0181905550604051806040016040528060008152602001600081525060026000600281526020019081526020016000206000820151816000015560208201518160010155905050604051806040016040528060088152602001600081525060026000600381526020019081526020016000206000820151816000015560208201518160010155905050600260036000600a811062000258577f4e487b7100000000000000000000000000000000000000000000000000000000600052603260045260246000fd5b6009020160006009811062000296577f4e487b7100000000000000000000000000000000000000000000000000000000600052603260045260246000fd5b01819055506003806000600a8110620002d8577f4e487b7100000000000000000000000000000000000000000000000000000000600052603260045260246000fd5b6009020160086009811062000316577f4e487b7100000000000000000000000000000000000000000000000000000000600052603260045260246000fd5b0181905550604051806040016040528060018152602001600081525060026000600481526020019081526020016000206000820151816000015560208201518160010155905050604051806040016040528060078152602001600081525060026000600581526020019081526020016000206000820151816000015560208201518160010155905050600460036000600a8110620003dd577f4e487b7100000000000000000000000000000000000000000000000000000000600052603260045260246000fd5b600902016001600981106200041b577f4e487b7100000000000000000000000000000000000000000000000000000000600052603260045260246000fd5b0181905550600560036000600a81106200045e577f4e487b7100000000000000000000000000000000000000000000000000000000600052603260045260246000fd5b600902016007600981106200049c577f4e487b7100000000000000000000000000000000000000000000000000000000600052603260045260246000fd5b0181905550604051806040016040528060018152602001600281525060026000600681526020019081526020016000206000820151816000015560208201518160010155905050604051806040016040528060078152602001600281525060026000600781526020019081526020016000206000820151816000015560208201518160010155905050600660036002600a811062000563577f4e487b7100000000000000000000000000000000000000000000000000000000600052603260045260246000fd5b60090201600160098110620005a1577f4e487b7100000000000000000000000000000000000000000000000000000000600052603260045260246000fd5b0181905550600760036002600a8110620005e4577f4e487b7100000000000000000000000000000000000000000000000000000000600052603260045260246000fd5b6009020160076009811062000622577f4e487b7100000000000000000000000000000000000000000000000000000000600052603260045260246000fd5b0181905550604051806040016040528060038152602001600081525060026000600881526020019081526020016000206000820151816000015560208201518160010155905050604051806040016040528060058152602001600081525060026000600981526020019081526020016000206000820151816000015560208201518160010155905050600860036000600a8110620006e9577f4e487b7100000000000000000000000000000000000000000000000000000000600052603260045260246000fd5b6009020160036009811062000727577f4e487b7100000000000000000000000000000000000000000000000000000000600052603260045260246000fd5b0181905550600960036000600a81106200076a577f4e487b7100000000000000000000000000000000000000000000000000000000600052603260045260246000fd5b60090201600560098110620007a8577f4e487b7100000000000000000000000000000000000000000000000000000000600052603260045260246000fd5b0181905550604051806040016040528060028152602001600081525060026000600a81526020019081526020016000206000820151816000015560208201518160010155905050604051806040016040528060068152602001600081525060026000600b81526020019081526020016000206000820151816000015560208201518160010155905050600a60036000600a81106200086f577f4e487b7100000000000000000000000000000000000000000000000000000000600052603260045260246000fd5b60090201600260098110620008ad577f4e487b7100000000000000000000000000000000000000000000000000000000600052603260045260246000fd5b0181905550600b60036000600a8110620008f0577f4e487b7100000000000000000000000000000000000000000000000000000000600052603260045260246000fd5b600902016006600981106200092e577f4e487b7100000000000000000000000000000000000000000000000000000000600052603260045260246000fd5b0181905550604051806040016040528060008152602001600381525060026000600c81526020019081526020016000206000820151816000015560208201518160010155905050604051806040016040528060028152602001600381525060026000600d81526020019081526020016000206000820151816000015560208201518160010155905050604051806040016040528060048152602001600381525060026000600e81526020019081526020016000206000820151816000015560208201518160010155905050604051806040016040528060068152602001600381525060026000600f81526020019081526020016000206000820151816000015560208201518160010155905050604051806040016040528060088152602001600381525060026000601081526020019081526020016000206000820151816000015560208201518160010155905050600c600380600a811062000aba577f4e487b7100000000000000000000000000000000000000000000000000000000600052603260045260246000fd5b6009020160006009811062000af8577f4e487b7100000000000000000000000000000000000000000000000000000000600052603260045260246000fd5b0181905550600d600380600a811062000b3a577f4e487b7100000000000000000000000000000000000000000000000000000000600052603260045260246000fd5b6009020160026009811062000b78577f4e487b7100000000000000000000000000000000000000000000000000000000600052603260045260246000fd5b0181905550600e600380600a811062000bba577f4e487b7100000000000000000000000000000000000000000000000000000000600052603260045260246000fd5b6009020160046009811062000bf8577f4e487b7100000000000000000000000000000000000000000000000000000000600052603260045260246000fd5b0181905550600f600380600a811062000c3a577f4e487b7100000000000000000000000000000000000000000000000000000000600052603260045260246000fd5b6009020160066009811062000c78577f4e487b7100000000000000000000000000000000000000000000000000000000600052603260045260246000fd5b01819055506010600380600a811062000cba577f4e487b7100000000000000000000000000000000000000000000000000000000600052603260045260246000fd5b6009020160086009811062000cf8577f4e487b7100000000000000000000000000000000000000000000000000000000600052603260045260246000fd5b0181905550604051806040016040528060008152602001600681525060026000601181526020019081526020016000206000820151816000015560208201518160010155905050604051806040016040528060028152602001600681525060026000601281526020019081526020016000206000820151816000015560208201518160010155905050604051806040016040528060048152602001600681525060026000601381526020019081526020016000206000820151816000015560208201518160010155905050604051806040016040528060068152602001600681525060026000601481526020019081526020016000206000820151816000015560208201518160010155905050604051806040016040528060088152602001600681525060026000601581526020019081526020016000206000820151816000015560208201518160010155905050601160036006600a811062000e85577f4e487b7100000000000000000000000000000000000000000000000000000000600052603260045260246000fd5b6009020160006009811062000ec3577f4e487b7100000000000000000000000000000000000000000000000000000000600052603260045260246000fd5b0181905550601260036006600a811062000f06577f4e487b7100000000000000000000000000000000000000000000000000000000600052603260045260246000fd5b6009020160026009811062000f44577f4e487b7100000000000000000000000000000000000000000000000000000000600052603260045260246000fd5b0181905550601360036006600a811062000f87577f4e487b7100000000000000000000000000000000000000000000000000000000600052603260045260246000fd5b6009020160046009811062000fc5577f4e487b7100000000000000000000000000000000000000000000000000000000600052603260045260246000fd5b0181905550601460036006600a811062001008577f4e487b7100000000000000000000000000000000000000000000000000000000600052603260045260246000fd5b6009020160066009811062001046577f4e487b7100000000000000000000000000000000000000000000000000000000600052603260045260246000fd5b0181905550601560036006600a811062001089577f4e487b7100000000000000000000000000000000000000000000000000000000600052603260045260246000fd5b60090201600860098110620010c7577f4e487b7100000000000000000000000000000000000000000000000000000000600052603260045260246000fd5b0181905550604051806040016040528060008152602001600981525060026000601681526020019081526020016000206000820151816000015560208201518160010155905050604051806040016040528060088152602001600981525060026000601781526020019081526020016000206000820151816000015560208201518160010155905050601660036009600a81106200118e577f4e487b7100000000000000000000000000000000000000000000000000000000600052603260045260246000fd5b60090201600060098110620011cc577f4e487b7100000000000000000000000000000000000000000000000000000000600052603260045260246000fd5b0181905550601760036009600a81106200120f577f4e487b7100000000000000000000000000000000000000000000000000000000600052603260045260246000fd5b600902016008600981106200124d577f4e487b7100000000000000000000000000000000000000000000000000000000600052603260045260246000fd5b0181905550604051806040016040528060018152602001600981525060026000601881526020019081526020016000206000820151816000015560208201518160010155905050604051806040016040528060078152602001600981525060026000601981526020019081526020016000206000820151816000015560208201518160010155905050601860036009600a811062001314577f4e487b7100000000000000000000000000000000000000000000000000000000600052603260045260246000fd5b6009020160016009811062001352577f4e487b7100000000000000000000000000000000000000000000000000000000600052603260045260246000fd5b0181905550601960036009600a811062001395577f4e487b7100000000000000000000000000000000000000000000000000000000600052603260045260246000fd5b60090201600760098110620013d3577f4e487b7100000000000000000000000000000000000000000000000000000000600052603260045260246000fd5b0181905550604051806040016040528060018152602001600781525060026000601a81526020019081526020016000206000820151816000015560208201518160010155905050604051806040016040528060078152602001600781525060026000601b81526020019081526020016000206000820151816000015560208201518160010155905050601a60036007600a81106200149a577f4e487b7100000000000000000000000000000000000000000000000000000000600052603260045260246000fd5b60090201600160098110620014d8577f4e487b7100000000000000000000000000000000000000000000000000000000600052603260045260246000fd5b0181905550601b60036007600a81106200151b577f4e487b7100000000000000000000000000000000000000000000000000000000600052603260045260246000fd5b6009020160076009811062001559577f4e487b7100000000000000000000000000000000000000000000000000000000600052603260045260246000fd5b0181905550604051806040016040528060038152602001600981525060026000601c81526020019081526020016000206000820151816000015560208201518160010155905050604051806040016040528060058152602001600981525060026000601d81526020019081526020016000206000820151816000015560208201518160010155905050601c60036009600a811062001620577f4e487b7100000000000000000000000000000000000000000000000000000000600052603260045260246000fd5b600902016003600981106200165e577f4e487b7100000000000000000000000000000000000000000000000000000000600052603260045260246000fd5b0181905550601d60036009600a8110620016a1577f4e487b7100000000000000000000000000000000000000000000000000000000600052603260045260246000fd5b60090201600560098110620016df577f4e487b7100000000000000000000000000000000000000000000000000000000600052603260045260246000fd5b0181905550604051806040016040528060028152602001600981525060026000601e81526020019081526020016000206000820151816000015560208201518160010155905050604051806040016040528060068152602001600981525060026000601f81526020019081526020016000206000820151816000015560208201518160010155905050601e60036009600a8110620017a6577f4e487b7100000000000000000000000000000000000000000000000000000000600052603260045260246000fd5b60090201600260098110620017e4577f4e487b7100000000000000000000000000000000000000000000000000000000600052603260045260246000fd5b0181905550601f60036009600a811062001827577f4e487b7100000000000000000000000000000000000000000000000000000000600052603260045260246000fd5b6009020160066009811062001865577f4e487b7100000000000000000000000000000000000000000000000000000000600052603260045260246000fd5b0181905550604051806040016040528060048152602001600981525060026000602081526020019081526020016000206000820151816000015560208201518160010155905050602060036009600a8110620018ea577f4e487b7100000000000000000000000000000000000000000000000000000000600052603260045260246000fd5b6009020160046009811062001928577f4e487b7100000000000000000000000000000000000000000000000000000000600052603260045260246000fd5b01819055505050620019db565b6000815190506200194681620019c1565b92915050565b600080604083850312156200196057600080fd5b6000620019708582860162001935565b9250506020620019838582860162001935565b9150509250929050565b60006200199a82620019a1565b9050919050565b600073ffffffffffffffffffffffffffffffffffffffff82169050919050565b620019cc816200198d565b8114620019d857600080fd5b50565b61808d80620019eb6000396000f3fe608060405234801561001057600080fd5b50600436106100a95760003560e01c8063764569a411610071578063764569a4146101aa57806379ebc6ab146101de5780638e14a7d314610212578063900379f114610243578063a8ccb08914610277578063fce3f0c5146102a7576100a9565b80630d3dbc96146100ae5780631392e54f146100e257806326b7a89214610112578063386bba36146101425780634c5490e214610176575b600080fd5b6100c860048036038101906100c391906179ee565b6102db565b6040516100d9959493929190617b64565b60405180910390f35b6100fc60048036038101906100f79190617a2f565b61030a565b6040516101099190617b49565b60405180910390f35b61012c60048036038101906101279190617a58565b610335565b6040516101399190617bbe565b60405180910390f35b61015c60048036038101906101579190617a94565b610367565b60405161016d959493929190617b64565b60405180910390f35b610190600480360381019061018b9190617a2f565b610573565b6040516101a1959493929190617b64565b60405180910390f35b6101c460048036038101906101bf9190617a94565b610605565b6040516101d5959493929190617b64565b60405180910390f35b6101f860048036038101906101f39190617a2f565b613e16565b604051610209959493929190617b64565b60405180910390f35b61022c60048036038101906102279190617a2f565b613ea8565b60405161023a929190617bd9565b60405180910390f35b61025d60048036038101906102589190617a94565b613ecc565b60405161026e959493929190617b64565b60405180910390f35b610291600480360381019061028c9190617a58565b617706565b60405161029e9190617bbe565b60405180910390f35b6102c160048036038101906102bc9190617a94565b617738565b6040516102d2959493929190617b64565b60405180910390f35b600080606060008060008060008890506000838383836000985098509850985098505050505091939590929450565b600060118210801561031d575060008214155b1561032b5760019050610330565b600090505b919050565b60008183111561035257818361034b9190617d06565b9050610361565b828261035e9190617d06565b90505b92915050565b600080606060008060008811158061037f5750602088115b156103d1576000806000806040518060400160405280600f81526020017f696e76616c696420706965636549640000000000000000000000000000000000815250919094509450945094509450610568565b60008710806103e05750600887115b806103eb5750600086105b806103f65750600986115b15610448576000806000806040518060400160405280600e81526020017f696e76616c69642078206f722079000000000000000000000000000000000000815250919094509450945094509450610568565b6000600260008a8152602001908152602001600020604051806040016040529081600082015481526020016001820154815250509050606481600001511480610495575060648160200151145b156104e8576000806000806040518060400160405280600d81526020017f706965636520697320646561640000000000000000000000000000000000000081525091909550955095509550955050610568565b8781600001511480156104fe5750868160200151145b15610551576000806000806040518060400160405280600e81526020017f796f7520646f6e6f74206d6f766500000000000000000000000000000000000081525091909550955095509550955050610568565b61055c898989617738565b95509550955095509550505b939792965093509350565b60008060606000806000600190506000806040518060200160405280600081525090506000808a905060018114156105e75760019350600060019054906101000a900473ffffffffffffffffffffffffffffffffffffffff16915084848484849950995099509950995050505050506105fc565b84848484849950995099509950995050505050505b91939590929450565b60008060606000806000600260008a81526020019081526020016000209050600060208a1415610b1a5760038910158015610641575060058911155b801561064e575060078810155b801561065b575060098811155b15610acb5760006106708a8460000154610335565b14801561068a57506001610688898460010154617706565b145b806106bb575060016106a08a8460000154610335565b1480156106ba575060006106b8898460010154617706565b145b5b15610a7c57601060038a600a81106106fc577f4e487b7100000000000000000000000000000000000000000000000000000000600052603260045260246000fd5b600902018960098110610738577f4e487b7100000000000000000000000000000000000000000000000000000000600052603260045260246000fd5b0154111561078f5761077e6040518060400160405280601a81526020017f796f752063616e2065617420796f7572206f776e2070696563650000000000008152506102db565b965096509650965096505050613e0b565b600060038a600a81106107cb577f4e487b7100000000000000000000000000000000000000000000000000000000600052603260045260246000fd5b600902018960098110610807577f4e487b7100000000000000000000000000000000000000000000000000000000600052603260045260246000fd5b015411156109b057600389600a8110610849577f4e487b7100000000000000000000000000000000000000000000000000000000600052603260045260246000fd5b600902018860098110610885577f4e487b7100000000000000000000000000000000000000000000000000000000600052603260045260246000fd5b0154905060646002600060038c600a81106108c9577f4e487b7100000000000000000000000000000000000000000000000000000000600052603260045260246000fd5b600902018b60098110610905577f4e487b7100000000000000000000000000000000000000000000000000000000600052603260045260246000fd5b015481526020019081526020016000206000018190555060646002600060038c600a811061095c577f4e487b7100000000000000000000000000000000000000000000000000000000600052603260045260246000fd5b600902018b60098110610998577f4e487b7100000000000000000000000000000000000000000000000000000000600052603260045260246000fd5b01548152602001908152602001600020600101819055505b88600260008c81526020019081526020016000206000018190555087600260008c8152602001908152602001600020600101819055508960038a600a8110610a21577f4e487b7100000000000000000000000000000000000000000000000000000000600052603260045260246000fd5b600902018960098110610a5d577f4e487b7100000000000000000000000000000000000000000000000000000000600052603260045260246000fd5b0181905550610a6b81610573565b965096509650965096505050613e0b565b610aba6040518060400160405280601b81526020017f796f7572204b696e67206e6f7420696e207269676874206d6f766500000000008152506102db565b965096509650965096505050613e0b565b610b096040518060400160405280601b81526020017f796f7572204b696e67206e6f7420696e207269676874206172656100000000008152506102db565b965096509650965096505050613e0b565b601c8a1480610b295750601d8a145b15610fe85760038910158015610b40575060058911155b8015610b4d575060078810155b8015610b5a575060098811155b15610f99576001610b6f8a8460000154610335565b148015610b8957506001610b87898460010154617706565b145b15610f4a57601060038a600a8110610bca577f4e487b7100000000000000000000000000000000000000000000000000000000600052603260045260246000fd5b600902018960098110610c06577f4e487b7100000000000000000000000000000000000000000000000000000000600052603260045260246000fd5b01541115610c5d57610c4c6040518060400160405280601a81526020017f796f752063616e2065617420796f7572206f776e2070696563650000000000008152506102db565b965096509650965096505050613e0b565b600060038a600a8110610c99577f4e487b7100000000000000000000000000000000000000000000000000000000600052603260045260246000fd5b600902018960098110610cd5577f4e487b7100000000000000000000000000000000000000000000000000000000600052603260045260246000fd5b01541115610e7e57600389600a8110610d17577f4e487b7100000000000000000000000000000000000000000000000000000000600052603260045260246000fd5b600902018860098110610d53577f4e487b7100000000000000000000000000000000000000000000000000000000600052603260045260246000fd5b0154905060646002600060038c600a8110610d97577f4e487b7100000000000000000000000000000000000000000000000000000000600052603260045260246000fd5b600902018b60098110610dd3577f4e487b7100000000000000000000000000000000000000000000000000000000600052603260045260246000fd5b015481526020019081526020016000206000018190555060646002600060038c600a8110610e2a577f4e487b7100000000000000000000000000000000000000000000000000000000600052603260045260246000fd5b600902018b60098110610e66577f4e487b7100000000000000000000000000000000000000000000000000000000600052603260045260246000fd5b01548152602001908152602001600020600101819055505b88600260008c81526020019081526020016000206000018190555087600260008c8152602001908152602001600020600101819055508960038a600a8110610eef577f4e487b7100000000000000000000000000000000000000000000000000000000600052603260045260246000fd5b600902018960098110610f2b577f4e487b7100000000000000000000000000000000000000000000000000000000600052603260045260246000fd5b0181905550610f3981610573565b965096509650965096505050613e0b565b610f886040518060400160405280601c81526020017f796f7572204775617264206e6f7420696e207269676874206d6f7665000000008152506102db565b965096509650965096505050613e0b565b610fd76040518060400160405280601c81526020017f796f7572204775617264206e6f7420696e2072696768742061726561000000008152506102db565b965096509650965096505050613e0b565b601e8a1480610ff75750601f8a145b1561158457600588106115355760026110148a8460000154610335565b14801561102e5750600261102c898460010154617706565b145b156114e6576000600283600001548b6110479190617c7f565b6110519190617cd5565b90506000600284600101548b6110679190617c7f565b6110719190617cd5565b90506000600383600a81106110af577f4e487b7100000000000000000000000000000000000000000000000000000000600052603260045260246000fd5b6009020182600981106110eb577f4e487b7100000000000000000000000000000000000000000000000000000000600052603260045260246000fd5b01541461112657611113604051806060016040528060248152602001617fca602491396102db565b9850985098509850985050505050613e0b565b601060038c600a8110611162577f4e487b7100000000000000000000000000000000000000000000000000000000600052603260045260246000fd5b600902018b6009811061119e577f4e487b7100000000000000000000000000000000000000000000000000000000600052603260045260246000fd5b015411156111f7576111e46040518060400160405280601a81526020017f796f752063616e2065617420796f7572206f776e2070696563650000000000008152506102db565b9850985098509850985050505050613e0b565b600060038c600a8110611233577f4e487b7100000000000000000000000000000000000000000000000000000000600052603260045260246000fd5b600902018b6009811061126f577f4e487b7100000000000000000000000000000000000000000000000000000000600052603260045260246000fd5b015411156114185760038b600a81106112b1577f4e487b7100000000000000000000000000000000000000000000000000000000600052603260045260246000fd5b600902018a600981106112ed577f4e487b7100000000000000000000000000000000000000000000000000000000600052603260045260246000fd5b0154925060646002600060038e600a8110611331577f4e487b7100000000000000000000000000000000000000000000000000000000600052603260045260246000fd5b600902018d6009811061136d577f4e487b7100000000000000000000000000000000000000000000000000000000600052603260045260246000fd5b015481526020019081526020016000206000018190555060646002600060038e600a81106113c4577f4e487b7100000000000000000000000000000000000000000000000000000000600052603260045260246000fd5b600902018d60098110611400577f4e487b7100000000000000000000000000000000000000000000000000000000600052603260045260246000fd5b01548152602001908152602001600020600101819055505b8a600260008e81526020019081526020016000206000018190555089600260008e8152602001908152602001600020600101819055508b60038c600a8110611489577f4e487b7100000000000000000000000000000000000000000000000000000000600052603260045260246000fd5b600902018b600981106114c5577f4e487b7100000000000000000000000000000000000000000000000000000000600052603260045260246000fd5b01819055506114d383610573565b9850985098509850985050505050613e0b565b6115246040518060400160405280601f81526020017f796f757220456c657068616e74206e6f7420696e207269676874206d6f7665008152506102db565b965096509650965096505050613e0b565b6115736040518060400160405280601c81526020017f796f7572204775617264206e6f7420696e2072696768742061726561000000008152506102db565b965096509650965096505050613e0b565b60188a1480611593575060198a145b15611f7d5760016115a88a8460000154610335565b1480156115c2575060026115c0898460010154617706565b145b15611a63576000826000015490506000600284600101548b6115e49190617c7f565b6115ee9190617cd5565b90506000600383600a811061162c577f4e487b7100000000000000000000000000000000000000000000000000000000600052603260045260246000fd5b600902018260098110611668577f4e487b7100000000000000000000000000000000000000000000000000000000600052603260045260246000fd5b0154146116a357611690604051806060016040528060218152602001618014602191396102db565b9850985098509850985050505050613e0b565b601060038c600a81106116df577f4e487b7100000000000000000000000000000000000000000000000000000000600052603260045260246000fd5b600902018b6009811061171b577f4e487b7100000000000000000000000000000000000000000000000000000000600052603260045260246000fd5b01541115611774576117616040518060400160405280601a81526020017f796f752063616e2065617420796f7572206f776e2070696563650000000000008152506102db565b9850985098509850985050505050613e0b565b600060038c600a81106117b0577f4e487b7100000000000000000000000000000000000000000000000000000000600052603260045260246000fd5b600902018b600981106117ec577f4e487b7100000000000000000000000000000000000000000000000000000000600052603260045260246000fd5b015411156119955760038b600a811061182e577f4e487b7100000000000000000000000000000000000000000000000000000000600052603260045260246000fd5b600902018a6009811061186a577f4e487b7100000000000000000000000000000000000000000000000000000000600052603260045260246000fd5b0154925060646002600060038e600a81106118ae577f4e487b7100000000000000000000000000000000000000000000000000000000600052603260045260246000fd5b600902018d600981106118ea577f4e487b7100000000000000000000000000000000000000000000000000000000600052603260045260246000fd5b015481526020019081526020016000206000018190555060646002600060038e600a8110611941577f4e487b7100000000000000000000000000000000000000000000000000000000600052603260045260246000fd5b600902018d6009811061197d577f4e487b7100000000000000000000000000000000000000000000000000000000600052603260045260246000fd5b01548152602001908152602001600020600101819055505b8a600260008e81526020019081526020016000206000018190555089600260008e8152602001908152602001600020600101819055508b60038c600a8110611a06577f4e487b7100000000000000000000000000000000000000000000000000000000600052603260045260246000fd5b600902018b60098110611a42577f4e487b7100000000000000000000000000000000000000000000000000000000600052603260045260246000fd5b0181905550611a5083610573565b9850985098509850985050505050613e0b565b6002611a738a8460000154610335565b148015611a8d57506001611a8b898460010154617706565b145b15611f2e576000600283600001548b611aa69190617c7f565b611ab09190617cd5565b90506000836001015490506000600383600a8110611af7577f4e487b7100000000000000000000000000000000000000000000000000000000600052603260045260246000fd5b600902018260098110611b33577f4e487b7100000000000000000000000000000000000000000000000000000000600052603260045260246000fd5b015414611b6e57611b5b604051806060016040528060218152602001618014602191396102db565b9850985098509850985050505050613e0b565b601060038c600a8110611baa577f4e487b7100000000000000000000000000000000000000000000000000000000600052603260045260246000fd5b600902018b60098110611be6577f4e487b7100000000000000000000000000000000000000000000000000000000600052603260045260246000fd5b01541115611c3f57611c2c6040518060400160405280601a81526020017f796f752063616e2065617420796f7572206f776e2070696563650000000000008152506102db565b9850985098509850985050505050613e0b565b600060038c600a8110611c7b577f4e487b7100000000000000000000000000000000000000000000000000000000600052603260045260246000fd5b600902018b60098110611cb7577f4e487b7100000000000000000000000000000000000000000000000000000000600052603260045260246000fd5b01541115611e605760038b600a8110611cf9577f4e487b7100000000000000000000000000000000000000000000000000000000600052603260045260246000fd5b600902018a60098110611d35577f4e487b7100000000000000000000000000000000000000000000000000000000600052603260045260246000fd5b0154925060646002600060038e600a8110611d79577f4e487b7100000000000000000000000000000000000000000000000000000000600052603260045260246000fd5b600902018d60098110611db5577f4e487b7100000000000000000000000000000000000000000000000000000000600052603260045260246000fd5b015481526020019081526020016000206000018190555060646002600060038e600a8110611e0c577f4e487b7100000000000000000000000000000000000000000000000000000000600052603260045260246000fd5b600902018d60098110611e48577f4e487b7100000000000000000000000000000000000000000000000000000000600052603260045260246000fd5b01548152602001908152602001600020600101819055505b8a600260008e81526020019081526020016000206000018190555089600260008e8152602001908152602001600020600101819055508b60038c600a8110611ed1577f4e487b7100000000000000000000000000000000000000000000000000000000600052603260045260246000fd5b600902018b60098110611f0d577f4e487b7100000000000000000000000000000000000000000000000000000000600052603260045260246000fd5b0181905550611f1b83610573565b9850985098509850985050505050613e0b565b611f6c6040518060400160405280601c81526020017f796f757220486f727365206e6f7420696e207269676874206d6f7665000000008152506102db565b965096509650965096505050613e0b565b60168a1480611f8c575060178a145b156127e75781600001548914156121b65787826001015411156120af576000600189611fb89190617c7f565b90505b82600101548110156120a957600060038b600a8110612003577f4e487b7100000000000000000000000000000000000000000000000000000000600052603260045260246000fd5b60090201826009811061203f577f4e487b7100000000000000000000000000000000000000000000000000000000600052603260045260246000fd5b015414612096576120846040518060400160405280602081526020017f796f757220526f6f6b2063616e206e6f74206d6f7665206c696b6520746869738152506102db565b97509750975097509750505050613e0b565b80806120a190617dc4565b915050611fbb565b506121b1565b6000600183600101546120c29190617c7f565b90505b888110156121af57600060038b600a8110612109577f4e487b7100000000000000000000000000000000000000000000000000000000600052603260045260246000fd5b600902018260098110612145577f4e487b7100000000000000000000000000000000000000000000000000000000600052603260045260246000fd5b01541461219c5761218a6040518060400160405280602081526020017f796f757220526f6f6b2063616e206e6f74206d6f7665206c696b6520746869738152506102db565b97509750975097509750505050613e0b565b80806121a790617dc4565b9150506120c5565b505b61242b565b81600101548814156123db5788826000015411156122d457600060018a6121dd9190617c7f565b90505b82600001548110156122ce576000600382600a8110612228577f4e487b7100000000000000000000000000000000000000000000000000000000600052603260045260246000fd5b600902018a60098110612264577f4e487b7100000000000000000000000000000000000000000000000000000000600052603260045260246000fd5b0154146122bb576122a96040518060400160405280602081526020017f796f757220526f6f6b2063616e206e6f74206d6f7665206c696b6520746869738152506102db565b97509750975097509750505050613e0b565b80806122c690617dc4565b9150506121e0565b506123d6565b6000600183600001546122e79190617c7f565b90505b898110156123d4576000600382600a811061232e577f4e487b7100000000000000000000000000000000000000000000000000000000600052603260045260246000fd5b600902018a6009811061236a577f4e487b7100000000000000000000000000000000000000000000000000000000600052603260045260246000fd5b0154146123c1576123af6040518060400160405280602081526020017f796f757220526f6f6b2063616e206e6f74206d6f7665206c696b6520746869738152506102db565b97509750975097509750505050613e0b565b80806123cc90617dc4565b9150506122ea565b505b61242a565b6124196040518060400160405280601b81526020017f796f757220526f6f6b206e6f7420696e207269676874206d6f766500000000008152506102db565b965096509650965096505050613e0b565b5b601060038a600a8110612467577f4e487b7100000000000000000000000000000000000000000000000000000000600052603260045260246000fd5b6009020189600981106124a3577f4e487b7100000000000000000000000000000000000000000000000000000000600052603260045260246000fd5b015411156124fa576124e96040518060400160405280601a81526020017f796f752063616e2065617420796f7572206f776e2070696563650000000000008152506102db565b965096509650965096505050613e0b565b600060038a600a8110612536577f4e487b7100000000000000000000000000000000000000000000000000000000600052603260045260246000fd5b600902018960098110612572577f4e487b7100000000000000000000000000000000000000000000000000000000600052603260045260246000fd5b0154111561271b57600389600a81106125b4577f4e487b7100000000000000000000000000000000000000000000000000000000600052603260045260246000fd5b6009020188600981106125f0577f4e487b7100000000000000000000000000000000000000000000000000000000600052603260045260246000fd5b0154905060646002600060038c600a8110612634577f4e487b7100000000000000000000000000000000000000000000000000000000600052603260045260246000fd5b600902018b60098110612670577f4e487b7100000000000000000000000000000000000000000000000000000000600052603260045260246000fd5b015481526020019081526020016000206000018190555060646002600060038c600a81106126c7577f4e487b7100000000000000000000000000000000000000000000000000000000600052603260045260246000fd5b600902018b60098110612703577f4e487b7100000000000000000000000000000000000000000000000000000000600052603260045260246000fd5b01548152602001908152602001600020600101819055505b88600260008c81526020019081526020016000206000018190555087600260008c8152602001908152602001600020600101819055508960038a600a811061278c577f4e487b7100000000000000000000000000000000000000000000000000000000600052603260045260246000fd5b6009020189600981106127c8577f4e487b7100000000000000000000000000000000000000000000000000000000600052603260045260246000fd5b01819055506127d681610573565b965096509650965096505050613e0b565b601a8a14806127f65750601b8a145b1561353c57601160038a600a8110612837577f4e487b7100000000000000000000000000000000000000000000000000000000600052603260045260246000fd5b600902018960098110612873577f4e487b7100000000000000000000000000000000000000000000000000000000600052603260045260246000fd5b01541080156128f95750600060038a600a81106128b9577f4e487b7100000000000000000000000000000000000000000000000000000000600052603260045260246000fd5b6009020189600981106128f5577f4e487b7100000000000000000000000000000000000000000000000000000000600052603260045260246000fd5b0154115b15612cd857600082600001548a1415612aa35788836001015411156129dd57600060018a6129279190617c7f565b90505b83600101548110156129d757600060038c600a8110612972577f4e487b7100000000000000000000000000000000000000000000000000000000600052603260045260246000fd5b6009020182600981106129ae577f4e487b7100000000000000000000000000000000000000000000000000000000600052603260045260246000fd5b0154146129c45781806129c090617dc4565b9250505b80806129cf90617dc4565b91505061292a565b50612a9e565b6000600184600101546129f09190617c7f565b90505b89811015612a9c57600060038c600a8110612a37577f4e487b7100000000000000000000000000000000000000000000000000000000600052603260045260246000fd5b600902018260098110612a73577f4e487b7100000000000000000000000000000000000000000000000000000000600052603260045260246000fd5b015414612a89578180612a8590617dc4565b9250505b8080612a9490617dc4565b9150506129f3565b505b612c97565b8260010154891415612c46578983600001541115612b8057600060018b612aca9190617c7f565b90505b8360000154811015612b7a576000600382600a8110612b15577f4e487b7100000000000000000000000000000000000000000000000000000000600052603260045260246000fd5b600902018b60098110612b51577f4e487b7100000000000000000000000000000000000000000000000000000000600052603260045260246000fd5b015414612b67578180612b6390617dc4565b9250505b8080612b7290617dc4565b915050612acd565b50612c41565b600060018460000154612b939190617c7f565b90505b8a811015612c3f576000600382600a8110612bda577f4e487b7100000000000000000000000000000000000000000000000000000000600052603260045260246000fd5b600902018b60098110612c16577f4e487b7100000000000000000000000000000000000000000000000000000000600052603260045260246000fd5b015414612c2c578180612c2890617dc4565b9250505b8080612c3790617dc4565b915050612b96565b505b612c96565b612c846040518060400160405280601c81526020017f796f75722043616e6f6e206e6f7420696e207269676874206d6f7665000000008152506102db565b97509750975097509750505050613e0b565b5b60018114612cd257612cc0604051806060016040528060308152602001617f9a603091396102db565b97509750975097509750505050613e0b565b50613180565b600060038a600a8110612d14577f4e487b7100000000000000000000000000000000000000000000000000000000600052603260045260246000fd5b600902018960098110612d50577f4e487b7100000000000000000000000000000000000000000000000000000000600052603260045260246000fd5b0154141561317f578160000154891415612f43578782600101541115612e59576000600189612d7f9190617c7f565b90505b8260010154811015612e5357600060038b600a8110612dca577f4e487b7100000000000000000000000000000000000000000000000000000000600052603260045260246000fd5b600902018260098110612e06577f4e487b7100000000000000000000000000000000000000000000000000000000600052603260045260246000fd5b015414612e4057612e2e604051806060016040528060308152602001617f16603091396102db565b97509750975097509750505050613e0b565b8080612e4b90617dc4565b915050612d82565b50612f3e565b600060018360010154612e6c9190617c7f565b90505b88811015612f3c57600060038b600a8110612eb3577f4e487b7100000000000000000000000000000000000000000000000000000000600052603260045260246000fd5b600902018260098110612eef577f4e487b7100000000000000000000000000000000000000000000000000000000600052603260045260246000fd5b015414612f2957612f17604051806060016040528060308152602001617f16603091396102db565b97509750975097509750505050613e0b565b8080612f3490617dc4565b915050612e6f565b505b61317e565b816001015488141561312e57888260000154111561304457600060018a612f6a9190617c7f565b90505b826000015481101561303e576000600382600a8110612fb5577f4e487b7100000000000000000000000000000000000000000000000000000000600052603260045260246000fd5b600902018a60098110612ff1577f4e487b7100000000000000000000000000000000000000000000000000000000600052603260045260246000fd5b01541461302b57613019604051806060016040528060308152602001617f16603091396102db565b97509750975097509750505050613e0b565b808061303690617dc4565b915050612f6d565b50613129565b6000600183600001546130579190617c7f565b90505b89811015613127576000600382600a811061309e577f4e487b7100000000000000000000000000000000000000000000000000000000600052603260045260246000fd5b600902018a600981106130da577f4e487b7100000000000000000000000000000000000000000000000000000000600052603260045260246000fd5b01541461311457613102604051806060016040528060308152602001617f16603091396102db565b97509750975097509750505050613e0b565b808061311f90617dc4565b91505061305a565b505b61317d565b61316c6040518060400160405280601c81526020017f796f75722043616e6f6e206e6f7420696e207269676874206d6f7665000000008152506102db565b965096509650965096505050613e0b565b5b5b5b601060038a600a81106131bc577f4e487b7100000000000000000000000000000000000000000000000000000000600052603260045260246000fd5b6009020189600981106131f8577f4e487b7100000000000000000000000000000000000000000000000000000000600052603260045260246000fd5b0154111561324f5761323e6040518060400160405280601a81526020017f796f752063616e2065617420796f7572206f776e2070696563650000000000008152506102db565b965096509650965096505050613e0b565b600060038a600a811061328b577f4e487b7100000000000000000000000000000000000000000000000000000000600052603260045260246000fd5b6009020189600981106132c7577f4e487b7100000000000000000000000000000000000000000000000000000000600052603260045260246000fd5b0154111561347057600389600a8110613309577f4e487b7100000000000000000000000000000000000000000000000000000000600052603260045260246000fd5b600902018860098110613345577f4e487b7100000000000000000000000000000000000000000000000000000000600052603260045260246000fd5b0154905060646002600060038c600a8110613389577f4e487b7100000000000000000000000000000000000000000000000000000000600052603260045260246000fd5b600902018b600981106133c5577f4e487b7100000000000000000000000000000000000000000000000000000000600052603260045260246000fd5b015481526020019081526020016000206000018190555060646002600060038c600a811061341c577f4e487b7100000000000000000000000000000000000000000000000000000000600052603260045260246000fd5b600902018b60098110613458577f4e487b7100000000000000000000000000000000000000000000000000000000600052603260045260246000fd5b01548152602001908152602001600020600101819055505b88600260008c81526020019081526020016000206000018190555087600260008c8152602001908152602001600020600101819055508960038a600a81106134e1577f4e487b7100000000000000000000000000000000000000000000000000000000600052603260045260246000fd5b60090201896009811061351d577f4e487b7100000000000000000000000000000000000000000000000000000000600052603260045260246000fd5b018190555061352b81610573565b965096509650965096505050613e0b565b60118a148061354b575060128a145b80613556575060138a145b80613561575060148a145b8061356c575060158a145b15613e085760048260010154116139d6576001826001015461358e9190617d06565b8814801561359f5750816000015489145b806135c657508160010154881480156135c5575060016135c38a8460000154610335565b145b5b1561398757601060038a600a8110613607577f4e487b7100000000000000000000000000000000000000000000000000000000600052603260045260246000fd5b600902018960098110613643577f4e487b7100000000000000000000000000000000000000000000000000000000600052603260045260246000fd5b0154111561369a576136896040518060400160405280601a81526020017f796f752063616e2065617420796f7572206f776e2070696563650000000000008152506102db565b965096509650965096505050613e0b565b600060038a600a81106136d6577f4e487b7100000000000000000000000000000000000000000000000000000000600052603260045260246000fd5b600902018960098110613712577f4e487b7100000000000000000000000000000000000000000000000000000000600052603260045260246000fd5b015411156138bb57600389600a8110613754577f4e487b7100000000000000000000000000000000000000000000000000000000600052603260045260246000fd5b600902018860098110613790577f4e487b7100000000000000000000000000000000000000000000000000000000600052603260045260246000fd5b0154905060646002600060038c600a81106137d4577f4e487b7100000000000000000000000000000000000000000000000000000000600052603260045260246000fd5b600902018b60098110613810577f4e487b7100000000000000000000000000000000000000000000000000000000600052603260045260246000fd5b015481526020019081526020016000206000018190555060646002600060038c600a8110613867577f4e487b7100000000000000000000000000000000000000000000000000000000600052603260045260246000fd5b600902018b600981106138a3577f4e487b7100000000000000000000000000000000000000000000000000000000600052603260045260246000fd5b01548152602001908152602001600020600101819055505b88600260008c81526020019081526020016000206000018190555087600260008c8152602001908152602001600020600101819055508960038a600a811061392c577f4e487b7100000000000000000000000000000000000000000000000000000000600052603260045260246000fd5b600902018960098110613968577f4e487b7100000000000000000000000000000000000000000000000000000000600052603260045260246000fd5b018190555061397681610573565b965096509650965096505050613e0b565b6139c56040518060400160405280601b81526020017f796f7572205061776e206e6f7420696e207269676874206d6f766500000000008152506102db565b965096509650965096505050613e0b565b600182600101546139e79190617d06565b881480156139f85750816000015489145b15613db957601060038a600a8110613a39577f4e487b7100000000000000000000000000000000000000000000000000000000600052603260045260246000fd5b600902018960098110613a75577f4e487b7100000000000000000000000000000000000000000000000000000000600052603260045260246000fd5b01541115613acc57613abb6040518060400160405280601a81526020017f796f752063616e2065617420796f7572206f776e2070696563650000000000008152506102db565b965096509650965096505050613e0b565b600060038a600a8110613b08577f4e487b7100000000000000000000000000000000000000000000000000000000600052603260045260246000fd5b600902018960098110613b44577f4e487b7100000000000000000000000000000000000000000000000000000000600052603260045260246000fd5b01541115613ced57600389600a8110613b86577f4e487b7100000000000000000000000000000000000000000000000000000000600052603260045260246000fd5b600902018860098110613bc2577f4e487b7100000000000000000000000000000000000000000000000000000000600052603260045260246000fd5b0154905060646002600060038c600a8110613c06577f4e487b7100000000000000000000000000000000000000000000000000000000600052603260045260246000fd5b600902018b60098110613c42577f4e487b7100000000000000000000000000000000000000000000000000000000600052603260045260246000fd5b015481526020019081526020016000206000018190555060646002600060038c600a8110613c99577f4e487b7100000000000000000000000000000000000000000000000000000000600052603260045260246000fd5b600902018b60098110613cd5577f4e487b7100000000000000000000000000000000000000000000000000000000600052603260045260246000fd5b01548152602001908152602001600020600101819055505b88600260008c81526020019081526020016000206000018190555087600260008c8152602001908152602001600020600101819055508960038a600a8110613d5e577f4e487b7100000000000000000000000000000000000000000000000000000000600052603260045260246000fd5b600902018960098110613d9a577f4e487b7100000000000000000000000000000000000000000000000000000000600052603260045260246000fd5b0181905550613da881610573565b965096509650965096505050613e0b565b613df76040518060400160405280601b81526020017f796f7572205061776e206e6f7420696e207269676874206d6f766500000000008152506102db565b965096509650965096505050613e0b565b50505b939792965093509350565b60008060606000806000600190506000806040518060200160405280600081525090506000808a90506020811415613e8a5760019350600160009054906101000a900473ffffffffffffffffffffffffffffffffffffffff1691508484848484995099509950995099505050505050613e9f565b84848484849950995099509950995050505050505b91939590929450565b60026020528060005260406000206000915090508060000154908060010154905082565b60008060606000806000600260008a815260200190815260200160002090506060600060018b14156143f25760038a10158015613f0a575060058a11155b8015613f17575060008910155b8015613f24575060028911155b1561439f576000613f398b8560000154610335565b148015613f5357506001613f518a8560010154617706565b145b80613f8457506001613f698b8560000154610335565b148015613f8357506000613f818a8560010154617706565b145b5b1561434c5761400960038b600a8110613fc6577f4e487b7100000000000000000000000000000000000000000000000000000000600052603260045260246000fd5b600902018a60098110614002577f4e487b7100000000000000000000000000000000000000000000000000000000600052603260045260246000fd5b015461030a565b1561405e5761404c6040518060400160405280601a81526020017f796f752063616e2065617420796f7572206f776e2070696563650000000000008152506102db565b975097509750975097505050506176fb565b600060038b600a811061409a577f4e487b7100000000000000000000000000000000000000000000000000000000600052603260045260246000fd5b600902018a600981106140d6577f4e487b7100000000000000000000000000000000000000000000000000000000600052603260045260246000fd5b0154111561427f5760038a600a8110614118577f4e487b7100000000000000000000000000000000000000000000000000000000600052603260045260246000fd5b600902018960098110614154577f4e487b7100000000000000000000000000000000000000000000000000000000600052603260045260246000fd5b0154905060646002600060038d600a8110614198577f4e487b7100000000000000000000000000000000000000000000000000000000600052603260045260246000fd5b600902018c600981106141d4577f4e487b7100000000000000000000000000000000000000000000000000000000600052603260045260246000fd5b015481526020019081526020016000206000018190555060646002600060038d600a811061422b577f4e487b7100000000000000000000000000000000000000000000000000000000600052603260045260246000fd5b600902018c60098110614267577f4e487b7100000000000000000000000000000000000000000000000000000000600052603260045260246000fd5b01548152602001908152602001600020600101819055505b89600260008d81526020019081526020016000206000018190555088600260008d8152602001908152602001600020600101819055508a60038b600a81106142f0577f4e487b7100000000000000000000000000000000000000000000000000000000600052603260045260246000fd5b600902018a6009811061432c577f4e487b7100000000000000000000000000000000000000000000000000000000600052603260045260246000fd5b018190555061433a81613e16565b975097509750975097505050506176fb565b6040518060400160405280601d81526020017f6220796f7572204b696e67206e6f7420696e207269676874206d6f7665000000815250915061438d826102db565b975097509750975097505050506176fb565b6040518060400160405280601d81526020017f6220796f7572204b696e67206e6f7420696e207269676874206172656100000081525091506143e0826102db565b975097509750975097505050506176fb565b60088b1480614401575060098b145b156148d25760038a10158015614418575060058a11155b8015614425575060008910155b8015614432575060028911155b1561487f5760016144478b8560000154610335565b1480156144615750600161445f8a8560010154617706565b145b1561482c576144e660038b600a81106144a3577f4e487b7100000000000000000000000000000000000000000000000000000000600052603260045260246000fd5b600902018a600981106144df577f4e487b7100000000000000000000000000000000000000000000000000000000600052603260045260246000fd5b015461030a565b1561453e576040518060400160405280601c81526020017f6220796f752063616e2065617420796f7572206f776e20706965636500000000815250915061452c826102db565b975097509750975097505050506176fb565b600060038b600a811061457a577f4e487b7100000000000000000000000000000000000000000000000000000000600052603260045260246000fd5b600902018a600981106145b6577f4e487b7100000000000000000000000000000000000000000000000000000000600052603260045260246000fd5b0154111561475f5760038a600a81106145f8577f4e487b7100000000000000000000000000000000000000000000000000000000600052603260045260246000fd5b600902018960098110614634577f4e487b7100000000000000000000000000000000000000000000000000000000600052603260045260246000fd5b0154905060646002600060038d600a8110614678577f4e487b7100000000000000000000000000000000000000000000000000000000600052603260045260246000fd5b600902018c600981106146b4577f4e487b7100000000000000000000000000000000000000000000000000000000600052603260045260246000fd5b015481526020019081526020016000206000018190555060646002600060038d600a811061470b577f4e487b7100000000000000000000000000000000000000000000000000000000600052603260045260246000fd5b600902018c60098110614747577f4e487b7100000000000000000000000000000000000000000000000000000000600052603260045260246000fd5b01548152602001908152602001600020600101819055505b89600260008d81526020019081526020016000206000018190555088600260008d8152602001908152602001600020600101819055508a60038b600a81106147d0577f4e487b7100000000000000000000000000000000000000000000000000000000600052603260045260246000fd5b600902018a6009811061480c577f4e487b7100000000000000000000000000000000000000000000000000000000600052603260045260246000fd5b018190555061481a81613e16565b975097509750975097505050506176fb565b6040518060400160405280601e81526020017f6220796f7572204775617264206e6f7420696e207269676874206d6f76650000815250915061486d826102db565b975097509750975097505050506176fb565b6040518060400160405280601e81526020017f6220796f7572204775617264206e6f7420696e2072696768742061726561000081525091506148c0826102db565b975097509750975097505050506176fb565b600a8b14806148e15750600b8b145b15614e675760048911614e145760026148fe8b8560000154610335565b148015614918575060026149168a8560010154617706565b145b15614dde576000600284600001548c6149319190617c7f565b61493b9190617cd5565b90506000600285600101548c6149519190617c7f565b61495b9190617cd5565b90506000600383600a8110614999577f4e487b7100000000000000000000000000000000000000000000000000000000600052603260045260246000fd5b6009020182600981106149d5577f4e487b7100000000000000000000000000000000000000000000000000000000600052603260045260246000fd5b015414614a1457604051806060016040528060268152602001617fee602691399350614a00846102db565b9950995099509950995050505050506176fb565b614a9460038d600a8110614a51577f4e487b7100000000000000000000000000000000000000000000000000000000600052603260045260246000fd5b600902018c60098110614a8d577f4e487b7100000000000000000000000000000000000000000000000000000000600052603260045260246000fd5b015461030a565b15614aee576040518060400160405280601c81526020017f6220796f752063616e2065617420796f7572206f776e207069656365000000008152509350614ada846102db565b9950995099509950995050505050506176fb565b600060038d600a8110614b2a577f4e487b7100000000000000000000000000000000000000000000000000000000600052603260045260246000fd5b600902018c60098110614b66577f4e487b7100000000000000000000000000000000000000000000000000000000600052603260045260246000fd5b01541115614d0f5760038c600a8110614ba8577f4e487b7100000000000000000000000000000000000000000000000000000000600052603260045260246000fd5b600902018b60098110614be4577f4e487b7100000000000000000000000000000000000000000000000000000000600052603260045260246000fd5b0154925060646002600060038f600a8110614c28577f4e487b7100000000000000000000000000000000000000000000000000000000600052603260045260246000fd5b600902018e60098110614c64577f4e487b7100000000000000000000000000000000000000000000000000000000600052603260045260246000fd5b015481526020019081526020016000206000018190555060646002600060038f600a8110614cbb577f4e487b7100000000000000000000000000000000000000000000000000000000600052603260045260246000fd5b600902018e60098110614cf7577f4e487b7100000000000000000000000000000000000000000000000000000000600052603260045260246000fd5b01548152602001908152602001600020600101819055505b8b600260008f8152602001908152602001600020600001819055508a600260008f8152602001908152602001600020600101819055508c60038d600a8110614d80577f4e487b7100000000000000000000000000000000000000000000000000000000600052603260045260246000fd5b600902018c60098110614dbc577f4e487b7100000000000000000000000000000000000000000000000000000000600052603260045260246000fd5b0181905550614dca83613e16565b9950995099509950995050505050506176fb565b604051806060016040528060218152602001617ec3602191399150614e02826102db565b975097509750975097505050506176fb565b6040518060400160405280601e81526020017f6220796f7572204775617264206e6f7420696e207269676874206172656100008152509150614e55826102db565b975097509750975097505050506176fb565b60048b1480614e76575060058b145b15615880576001614e8b8b8560000154610335565b148015614ea557506002614ea38a8560010154617706565b145b15615354576000836000015490506000600285600101548c614ec79190617c7f565b614ed19190617cd5565b90506000600383600a8110614f0f577f4e487b7100000000000000000000000000000000000000000000000000000000600052603260045260246000fd5b600902018260098110614f4b577f4e487b7100000000000000000000000000000000000000000000000000000000600052603260045260246000fd5b015414614f8a57604051806060016040528060238152602001618035602391399350614f76846102db565b9950995099509950995050505050506176fb565b61500a60038d600a8110614fc7577f4e487b7100000000000000000000000000000000000000000000000000000000600052603260045260246000fd5b600902018c60098110615003577f4e487b7100000000000000000000000000000000000000000000000000000000600052603260045260246000fd5b015461030a565b15615064576040518060400160405280601c81526020017f6220796f752063616e2065617420796f7572206f776e207069656365000000008152509350615050846102db565b9950995099509950995050505050506176fb565b600060038d600a81106150a0577f4e487b7100000000000000000000000000000000000000000000000000000000600052603260045260246000fd5b600902018c600981106150dc577f4e487b7100000000000000000000000000000000000000000000000000000000600052603260045260246000fd5b015411156152855760038c600a811061511e577f4e487b7100000000000000000000000000000000000000000000000000000000600052603260045260246000fd5b600902018b6009811061515a577f4e487b7100000000000000000000000000000000000000000000000000000000600052603260045260246000fd5b0154925060646002600060038f600a811061519e577f4e487b7100000000000000000000000000000000000000000000000000000000600052603260045260246000fd5b600902018e600981106151da577f4e487b7100000000000000000000000000000000000000000000000000000000600052603260045260246000fd5b015481526020019081526020016000206000018190555060646002600060038f600a8110615231577f4e487b7100000000000000000000000000000000000000000000000000000000600052603260045260246000fd5b600902018e6009811061526d577f4e487b7100000000000000000000000000000000000000000000000000000000600052603260045260246000fd5b01548152602001908152602001600020600101819055505b8b600260008f8152602001908152602001600020600001819055508a600260008f8152602001908152602001600020600101819055508c60038d600a81106152f6577f4e487b7100000000000000000000000000000000000000000000000000000000600052603260045260246000fd5b600902018c60098110615332577f4e487b7100000000000000000000000000000000000000000000000000000000600052603260045260246000fd5b018190555061534083613e16565b9950995099509950995050505050506176fb565b60026153648b8560000154610335565b14801561537e5750600161537c8a8560010154617706565b145b1561582d576000600284600001548c6153979190617c7f565b6153a19190617cd5565b90506000846001015490506000600383600a81106153e8577f4e487b7100000000000000000000000000000000000000000000000000000000600052603260045260246000fd5b600902018260098110615424577f4e487b7100000000000000000000000000000000000000000000000000000000600052603260045260246000fd5b0154146154635760405180606001604052806023815260200161803560239139935061544f846102db565b9950995099509950995050505050506176fb565b6154e360038d600a81106154a0577f4e487b7100000000000000000000000000000000000000000000000000000000600052603260045260246000fd5b600902018c600981106154dc577f4e487b7100000000000000000000000000000000000000000000000000000000600052603260045260246000fd5b015461030a565b1561553d576040518060400160405280601c81526020017f6220796f752063616e2065617420796f7572206f776e207069656365000000008152509350615529846102db565b9950995099509950995050505050506176fb565b600060038d600a8110615579577f4e487b7100000000000000000000000000000000000000000000000000000000600052603260045260246000fd5b600902018c600981106155b5577f4e487b7100000000000000000000000000000000000000000000000000000000600052603260045260246000fd5b0154111561575e5760038c600a81106155f7577f4e487b7100000000000000000000000000000000000000000000000000000000600052603260045260246000fd5b600902018b60098110615633577f4e487b7100000000000000000000000000000000000000000000000000000000600052603260045260246000fd5b0154925060646002600060038f600a8110615677577f4e487b7100000000000000000000000000000000000000000000000000000000600052603260045260246000fd5b600902018e600981106156b3577f4e487b7100000000000000000000000000000000000000000000000000000000600052603260045260246000fd5b015481526020019081526020016000206000018190555060646002600060038f600a811061570a577f4e487b7100000000000000000000000000000000000000000000000000000000600052603260045260246000fd5b600902018e60098110615746577f4e487b7100000000000000000000000000000000000000000000000000000000600052603260045260246000fd5b01548152602001908152602001600020600101819055505b8b600260008f8152602001908152602001600020600001819055508a600260008f8152602001908152602001600020600101819055508c60038d600a81106157cf577f4e487b7100000000000000000000000000000000000000000000000000000000600052603260045260246000fd5b600902018c6009811061580b577f4e487b7100000000000000000000000000000000000000000000000000000000600052603260045260246000fd5b018190555061581983613e16565b9950995099509950995050505050506176fb565b6040518060400160405280601e81526020017f6220796f757220486f727365206e6f7420696e207269676874206d6f76650000815250915061586e826102db565b975097509750975097505050506176fb565b60028b148061588f575060038b145b156160945782600001548a1415615a8757888360010154111561599957600060018a6158bb9190617c7f565b90505b836001015481101561599357600060038c600a8110615906577f4e487b7100000000000000000000000000000000000000000000000000000000600052603260045260246000fd5b600902018260098110615942577f4e487b7100000000000000000000000000000000000000000000000000000000600052603260045260246000fd5b01541461598057604051806060016040528060228152602001617f7860229139925061596d836102db565b98509850985098509850505050506176fb565b808061598b90617dc4565b9150506158be565b50615a82565b6000600184600101546159ac9190617c7f565b90505b89811015615a8057600060038c600a81106159f3577f4e487b7100000000000000000000000000000000000000000000000000000000600052603260045260246000fd5b600902018260098110615a2f577f4e487b7100000000000000000000000000000000000000000000000000000000600052603260045260246000fd5b015414615a6d57604051806060016040528060228152602001617f78602291399250615a5a836102db565b98509850985098509850505050506176fb565b8080615a7890617dc4565b9150506159af565b505b615cce565b8260010154891415615c7a578983600001541115615b8c57600060018b615aae9190617c7f565b90505b8360000154811015615b86576000600382600a8110615af9577f4e487b7100000000000000000000000000000000000000000000000000000000600052603260045260246000fd5b600902018b60098110615b35577f4e487b7100000000000000000000000000000000000000000000000000000000600052603260045260246000fd5b015414615b7357604051806060016040528060228152602001617f78602291399250615b60836102db565b98509850985098509850505050506176fb565b8080615b7e90617dc4565b915050615ab1565b50615c75565b600060018460000154615b9f9190617c7f565b90505b8a811015615c73576000600382600a8110615be6577f4e487b7100000000000000000000000000000000000000000000000000000000600052603260045260246000fd5b600902018b60098110615c22577f4e487b7100000000000000000000000000000000000000000000000000000000600052603260045260246000fd5b015414615c6057604051806060016040528060228152602001617f78602291399250615c4d836102db565b98509850985098509850505050506176fb565b8080615c6b90617dc4565b915050615ba2565b505b615ccd565b6040518060400160405280601d81526020017f6220796f757220526f6f6b206e6f7420696e207269676874206d6f76650000008152509150615cbb826102db565b975097509750975097505050506176fb565b5b615d4e60038b600a8110615d0b577f4e487b7100000000000000000000000000000000000000000000000000000000600052603260045260246000fd5b600902018a60098110615d47577f4e487b7100000000000000000000000000000000000000000000000000000000600052603260045260246000fd5b015461030a565b15615da6576040518060400160405280601b81526020017f62796f752063616e2065617420796f7572206f776e20706965636500000000008152509150615d94826102db565b975097509750975097505050506176fb565b600060038b600a8110615de2577f4e487b7100000000000000000000000000000000000000000000000000000000600052603260045260246000fd5b600902018a60098110615e1e577f4e487b7100000000000000000000000000000000000000000000000000000000600052603260045260246000fd5b01541115615fc75760038a600a8110615e60577f4e487b7100000000000000000000000000000000000000000000000000000000600052603260045260246000fd5b600902018960098110615e9c577f4e487b7100000000000000000000000000000000000000000000000000000000600052603260045260246000fd5b0154905060646002600060038d600a8110615ee0577f4e487b7100000000000000000000000000000000000000000000000000000000600052603260045260246000fd5b600902018c60098110615f1c577f4e487b7100000000000000000000000000000000000000000000000000000000600052603260045260246000fd5b015481526020019081526020016000206000018190555060646002600060038d600a8110615f73577f4e487b7100000000000000000000000000000000000000000000000000000000600052603260045260246000fd5b600902018c60098110615faf577f4e487b7100000000000000000000000000000000000000000000000000000000600052603260045260246000fd5b01548152602001908152602001600020600101819055505b89600260008d81526020019081526020016000206000018190555088600260008d8152602001908152602001600020600101819055508a60038b600a8110616038577f4e487b7100000000000000000000000000000000000000000000000000000000600052603260045260246000fd5b600902018a60098110616074577f4e487b7100000000000000000000000000000000000000000000000000000000600052603260045260246000fd5b018190555061608281613e16565b975097509750975097505050506176fb565b60068b14806160a3575060078b145b15616e0f57601160038b600a81106160e4577f4e487b7100000000000000000000000000000000000000000000000000000000600052603260045260246000fd5b600902018a60098110616120577f4e487b7100000000000000000000000000000000000000000000000000000000600052603260045260246000fd5b01541080156161a65750600060038b600a8110616166577f4e487b7100000000000000000000000000000000000000000000000000000000600052603260045260246000fd5b600902018a600981106161a2577f4e487b7100000000000000000000000000000000000000000000000000000000600052603260045260246000fd5b0154115b1561658d57600083600001548b141561635057898460010154111561628a57600060018b6161d49190617c7f565b90505b846001015481101561628457600060038d600a811061621f577f4e487b7100000000000000000000000000000000000000000000000000000000600052603260045260246000fd5b60090201826009811061625b577f4e487b7100000000000000000000000000000000000000000000000000000000600052603260045260246000fd5b01541461627157818061626d90617dc4565b9250505b808061627c90617dc4565b9150506161d7565b5061634b565b60006001856001015461629d9190617c7f565b90505b8a81101561634957600060038d600a81106162e4577f4e487b7100000000000000000000000000000000000000000000000000000000600052603260045260246000fd5b600902018260098110616320577f4e487b7100000000000000000000000000000000000000000000000000000000600052603260045260246000fd5b01541461633657818061633290617dc4565b9250505b808061634190617dc4565b9150506162a0565b505b616548565b83600101548a14156164f3578a8460000154111561642d57600060018c6163779190617c7f565b90505b8460000154811015616427576000600382600a81106163c2577f4e487b7100000000000000000000000000000000000000000000000000000000600052603260045260246000fd5b600902018c600981106163fe577f4e487b7100000000000000000000000000000000000000000000000000000000600052603260045260246000fd5b01541461641457818061641090617dc4565b9250505b808061641f90617dc4565b91505061637a565b506164ee565b6000600185600001546164409190617c7f565b90505b8b8110156164ec576000600382600a8110616487577f4e487b7100000000000000000000000000000000000000000000000000000000600052603260045260246000fd5b600902018c600981106164c3577f4e487b7100000000000000000000000000000000000000000000000000000000600052603260045260246000fd5b0154146164d95781806164d590617dc4565b9250505b80806164e490617dc4565b915050616443565b505b616547565b6040518060400160405280601e81526020017f6220796f75722043616e6f6e206e6f7420696e207269676874206d6f766500008152509250616534836102db565b98509850985098509850505050506176fb565b5b6001811461658757604051806060016040528060328152602001617f46603291399250616574836102db565b98509850985098509850505050506176fb565b50616a49565b600060038b600a81106165c9577f4e487b7100000000000000000000000000000000000000000000000000000000600052603260045260246000fd5b600902018a60098110616605577f4e487b7100000000000000000000000000000000000000000000000000000000600052603260045260246000fd5b01541415616a485782600001548a141561680057888360010154111561671257600060018a6166349190617c7f565b90505b836001015481101561670c57600060038c600a811061667f577f4e487b7100000000000000000000000000000000000000000000000000000000600052603260045260246000fd5b6009020182600981106166bb577f4e487b7100000000000000000000000000000000000000000000000000000000600052603260045260246000fd5b0154146166f957604051806060016040528060328152602001617ee46032913992506166e6836102db565b98509850985098509850505050506176fb565b808061670490617dc4565b915050616637565b506167fb565b6000600184600101546167259190617c7f565b90505b898110156167f957600060038c600a811061676c577f4e487b7100000000000000000000000000000000000000000000000000000000600052603260045260246000fd5b6009020182600981106167a8577f4e487b7100000000000000000000000000000000000000000000000000000000600052603260045260246000fd5b0154146167e657604051806060016040528060328152602001617ee46032913992506167d3836102db565b98509850985098509850505050506176fb565b80806167f190617dc4565b915050616728565b505b616a47565b82600101548914156169f357898360000154111561690557600060018b6168279190617c7f565b90505b83600001548110156168ff576000600382600a8110616872577f4e487b7100000000000000000000000000000000000000000000000000000000600052603260045260246000fd5b600902018b600981106168ae577f4e487b7100000000000000000000000000000000000000000000000000000000600052603260045260246000fd5b0154146168ec57604051806060016040528060328152602001617ee46032913992506168d9836102db565b98509850985098509850505050506176fb565b80806168f790617dc4565b91505061682a565b506169ee565b6000600184600001546169189190617c7f565b90505b8a8110156169ec576000600382600a811061695f577f4e487b7100000000000000000000000000000000000000000000000000000000600052603260045260246000fd5b600902018b6009811061699b577f4e487b7100000000000000000000000000000000000000000000000000000000600052603260045260246000fd5b0154146169d957604051806060016040528060328152602001617ee46032913992506169c6836102db565b98509850985098509850505050506176fb565b80806169e490617dc4565b91505061691b565b505b616a46565b6040518060400160405280601e81526020017f6220796f75722043616e6f6e206e6f7420696e207269676874206d6f766500008152509150616a34826102db565b975097509750975097505050506176fb565b5b5b5b616ac960038b600a8110616a86577f4e487b7100000000000000000000000000000000000000000000000000000000600052603260045260246000fd5b600902018a60098110616ac2577f4e487b7100000000000000000000000000000000000000000000000000000000600052603260045260246000fd5b015461030a565b15616b21576040518060400160405280601c81526020017f6220796f752063616e2065617420796f7572206f776e207069656365000000008152509150616b0f826102db565b975097509750975097505050506176fb565b600060038b600a8110616b5d577f4e487b7100000000000000000000000000000000000000000000000000000000600052603260045260246000fd5b600902018a60098110616b99577f4e487b7100000000000000000000000000000000000000000000000000000000600052603260045260246000fd5b01541115616d425760038a600a8110616bdb577f4e487b7100000000000000000000000000000000000000000000000000000000600052603260045260246000fd5b600902018960098110616c17577f4e487b7100000000000000000000000000000000000000000000000000000000600052603260045260246000fd5b0154905060646002600060038d600a8110616c5b577f4e487b7100000000000000000000000000000000000000000000000000000000600052603260045260246000fd5b600902018c60098110616c97577f4e487b7100000000000000000000000000000000000000000000000000000000600052603260045260246000fd5b015481526020019081526020016000206000018190555060646002600060038d600a8110616cee577f4e487b7100000000000000000000000000000000000000000000000000000000600052603260045260246000fd5b600902018c60098110616d2a577f4e487b7100000000000000000000000000000000000000000000000000000000600052603260045260246000fd5b01548152602001908152602001600020600101819055505b89600260008d81526020019081526020016000206000018190555088600260008d8152602001908152602001600020600101819055508a60038b600a8110616db3577f4e487b7100000000000000000000000000000000000000000000000000000000600052603260045260246000fd5b600902018a60098110616def577f4e487b7100000000000000000000000000000000000000000000000000000000600052603260045260246000fd5b0181905550616dfd81613e16565b975097509750975097505050506176fb565b600c8b1480616e1e5750600d8b145b80616e295750600e8b145b80616e345750600f8b145b80616e3f575060108b145b156176f75760058360010154106172b75760018360010154616e619190617d06565b89148015616e72575082600001548a145b80616e995750826001015489148015616e9857506001616e968b8560000154610335565b145b5b1561726457616f1e60038b600a8110616edb577f4e487b7100000000000000000000000000000000000000000000000000000000600052603260045260246000fd5b600902018a60098110616f17577f4e487b7100000000000000000000000000000000000000000000000000000000600052603260045260246000fd5b015461030a565b15616f76576040518060400160405280601c81526020017f6220796f752063616e2065617420796f7572206f776e207069656365000000008152509150616f64826102db565b975097509750975097505050506176fb565b600060038b600a8110616fb2577f4e487b7100000000000000000000000000000000000000000000000000000000600052603260045260246000fd5b600902018a60098110616fee577f4e487b7100000000000000000000000000000000000000000000000000000000600052603260045260246000fd5b015411156171975760038a600a8110617030577f4e487b7100000000000000000000000000000000000000000000000000000000600052603260045260246000fd5b60090201896009811061706c577f4e487b7100000000000000000000000000000000000000000000000000000000600052603260045260246000fd5b0154905060646002600060038d600a81106170b0577f4e487b7100000000000000000000000000000000000000000000000000000000600052603260045260246000fd5b600902018c600981106170ec577f4e487b7100000000000000000000000000000000000000000000000000000000600052603260045260246000fd5b015481526020019081526020016000206000018190555060646002600060038d600a8110617143577f4e487b7100000000000000000000000000000000000000000000000000000000600052603260045260246000fd5b600902018c6009811061717f577f4e487b7100000000000000000000000000000000000000000000000000000000600052603260045260246000fd5b01548152602001908152602001600020600101819055505b89600260008d81526020019081526020016000206000018190555088600260008d8152602001908152602001600020600101819055508a60038b600a8110617208577f4e487b7100000000000000000000000000000000000000000000000000000000600052603260045260246000fd5b600902018a60098110617244577f4e487b7100000000000000000000000000000000000000000000000000000000600052603260045260246000fd5b018190555061725281613e16565b975097509750975097505050506176fb565b6040518060400160405280601d81526020017f6220796f7572205061776e206e6f7420696e207269676874206d6f766500000081525091506172a5826102db565b975097509750975097505050506176fb565b600183600101546172c89190617d06565b891480156172d9575082600001548a145b156176a45761735e60038b600a811061731b577f4e487b7100000000000000000000000000000000000000000000000000000000600052603260045260246000fd5b600902018a60098110617357577f4e487b7100000000000000000000000000000000000000000000000000000000600052603260045260246000fd5b015461030a565b156173b6576040518060400160405280601c81526020017f6220796f752063616e2065617420796f7572206f776e2070696563650000000081525091506173a4826102db565b975097509750975097505050506176fb565b600060038b600a81106173f2577f4e487b7100000000000000000000000000000000000000000000000000000000600052603260045260246000fd5b600902018a6009811061742e577f4e487b7100000000000000000000000000000000000000000000000000000000600052603260045260246000fd5b015411156175d75760038a600a8110617470577f4e487b7100000000000000000000000000000000000000000000000000000000600052603260045260246000fd5b6009020189600981106174ac577f4e487b7100000000000000000000000000000000000000000000000000000000600052603260045260246000fd5b0154905060646002600060038d600a81106174f0577f4e487b7100000000000000000000000000000000000000000000000000000000600052603260045260246000fd5b600902018c6009811061752c577f4e487b7100000000000000000000000000000000000000000000000000000000600052603260045260246000fd5b015481526020019081526020016000206000018190555060646002600060038d600a8110617583577f4e487b7100000000000000000000000000000000000000000000000000000000600052603260045260246000fd5b600902018c600981106175bf577f4e487b7100000000000000000000000000000000000000000000000000000000600052603260045260246000fd5b01548152602001908152602001600020600101819055505b89600260008d81526020019081526020016000206000018190555088600260008d8152602001908152602001600020600101819055508a60038b600a8110617648577f4e487b7100000000000000000000000000000000000000000000000000000000600052603260045260246000fd5b600902018a60098110617684577f4e487b7100000000000000000000000000000000000000000000000000000000600052603260045260246000fd5b018190555061769281613e16565b975097509750975097505050506176fb565b6040518060400160405280601d81526020017f6220796f7572205061776e206e6f7420696e207269676874206d6f766500000081525091506176e5826102db565b975097509750975097505050506176fb565b5050505b939792965093509350565b60008183111561772357818361771c9190617d06565b9050617732565b828261772f9190617d06565b90505b92915050565b600080606060008060008054906101000a900460ff16801561775a5750601188105b80156177b35750600060019054906101000a900473ffffffffffffffffffffffffffffffffffffffff1673ffffffffffffffffffffffffffffffffffffffff163273ffffffffffffffffffffffffffffffffffffffff16145b15617805576000806000806040518060400160405280600f81526020017f6973206e6f7420726564207475726e0000000000000000000000000000000000815250919094509450945094509450617966565b60008054906101000a900460ff161580156178205750601088115b80156178795750600160009054906101000a900473ffffffffffffffffffffffffffffffffffffffff1673ffffffffffffffffffffffffffffffffffffffff163273ffffffffffffffffffffffffffffffffffffffff16145b156178cb576000806000806040518060400160405280601181526020017f6973206e6f7420626c61636b207475726e000000000000000000000000000000815250919094509450945094509450617966565b600080606060008060008054906101000a900460ff161561790a576178f18d8d8d610605565b809550819650829750839850849950505050505061792a565b6179158d8d8d613ecc565b80955081965082975083985084995050505050505b60008054906101000a900460ff16156000806101000a81548160ff02191690831515021790555084848484849950995099509950995050505050505b939792965093509350565b600061798461797f84617c33565b617c02565b90508281526020810184848401111561799c57600080fd5b6179a7848285617d82565b509392505050565b600082601f8301126179c057600080fd5b81356179d0848260208601617971565b91505092915050565b6000813590506179e881617eab565b92915050565b600060208284031215617a0057600080fd5b600082013567ffffffffffffffff811115617a1a57600080fd5b617a26848285016179af565b91505092915050565b600060208284031215617a4157600080fd5b6000617a4f848285016179d9565b91505092915050565b60008060408385031215617a6b57600080fd5b6000617a79858286016179d9565b9250506020617a8a858286016179d9565b9150509250929050565b600080600060608486031215617aa957600080fd5b6000617ab7868287016179d9565b9350506020617ac8868287016179d9565b9250506040617ad9868287016179d9565b9150509250925092565b617aec81617d3a565b82525050565b617afb81617d4c565b82525050565b6000617b0c82617c63565b617b168185617c6e565b9350617b26818560208601617d91565b617b2f81617e9a565b840191505092915050565b617b4381617d78565b82525050565b6000602082019050617b5e6000830184617af2565b92915050565b600060a082019050617b796000830188617af2565b617b866020830187617af2565b8181036040830152617b988186617b01565b9050617ba76060830185617ae3565b617bb46080830184617b3a565b9695505050505050565b6000602082019050617bd36000830184617b3a565b92915050565b6000604082019050617bee6000830185617b3a565b617bfb6020830184617b3a565b9392505050565b6000604051905081810181811067ffffffffffffffff82111715617c2957617c28617e6b565b5b8060405250919050565b600067ffffffffffffffff821115617c4e57617c4d617e6b565b5b601f19601f8301169050602081019050919050565b600081519050919050565b600082825260208201905092915050565b6000617c8a82617d78565b9150617c9583617d78565b9250827fffffffffffffffffffffffffffffffffffffffffffffffffffffffffffffffff03821115617cca57617cc9617e0d565b5b828201905092915050565b6000617ce082617d78565b9150617ceb83617d78565b925082617cfb57617cfa617e3c565b5b828204905092915050565b6000617d1182617d78565b9150617d1c83617d78565b925082821015617d2f57617d2e617e0d565b5b828203905092915050565b6000617d4582617d58565b9050919050565b60008115159050919050565b600073ffffffffffffffffffffffffffffffffffffffff82169050919050565b6000819050919050565b82818337600083830152505050565b60005b83811015617daf578082015181840152602081019050617d94565b83811115617dbe576000848401525b50505050565b6000617dcf82617d78565b91507fffffffffffffffffffffffffffffffffffffffffffffffffffffffffffffffff821415617e0257617e01617e0d565b5b600182019050919050565b7f4e487b7100000000000000000000000000000000000000000000000000000000600052601160045260246000fd5b7f4e487b7100000000000000000000000000000000000000000000000000000000600052601260045260246000fd5b7f4e487b7100000000000000000000000000000000000000000000000000000000600052604160045260246000fd5b6000601f19601f8301169050919050565b617eb481617d78565b8114617ebf57600080fd5b5056fe6220796f757220456c657068616e74206e6f7420696e207269676874206d6f76656220796f75722043616e6f6e206e6f7420696e207269676874206d6f7665206f6e6520706965636520696e206d6964646c65796f75722043616e6f6e206e6f7420696e207269676874206d6f7665206f6e6520706965636520696e206d6964646c656220796f75722043616e6f6e206e6f7420696e207269676874206d6f76652074776f20706965636520696e206d6964646c656220796f757220526f6f6b2063616e206e6f74206d6f7665206c696b652074686973796f75722043616e6f6e206e6f7420696e207269676874206d6f76652074776f20706965636520696e206d6964646c65796f757220456c657068616e742063616e206e6f74206d6f7665206c696b6520746869736220796f757220456c657068616e742063616e206e6f74206d6f7665206c696b652074686973796f757220486f7273652063616e206e6f74206d6f7665206c696b6520746869736220796f757220486f7273652063616e206e6f74206d6f7665206c696b652074686973a2646970667358221220b475b2f099bfb6ffe77da34490c70ed2e98dd72b68fc4e6d472587533617177c64736f6c63430008000033a2646970667358221220f9e5d0b90617102cfe321006c11bec759894d6a03b3642f96fa6034578f9192e64736f6c63430008000033",
  "immutableReferences": {},
  "source": "// contracts/LowbMarket.sol\n// SPDX-License-Identifier: MIT\npragma solidity 0.8.0;\n\nimport \"./OneChess.sol\";\nimport \"@openzeppelin/contracts/token/ERC20/IERC20.sol\";\n\ncontract ChessContract {\n\n    address public lowbTokenAddress;\n\n    address public owner;\n\n    /* Inverse basis point. */\n    uint private constant INVERSE_BASIS_POINT = 10000;\n    uint private fee;\n    /* GameId */\n    uint private curGameId = 100;\n\n    struct ChessGame {\n        bool isPlaying;\n        uint gameId;\n        address redPlayer;\n        address blackPlayer;\n        uint value;\n        OneChess oneChess;\n    }\n\n    struct PenddingGame {\n        bool exist;\n        address redPlayer;\n        address blackPlayer;\n    }\n\n    /** 1w,3w,5w  */\n    PenddingGame public penddingChess10K;\n    PenddingGame public penddingChess30K;\n    PenddingGame public penddingChess50K;\n\n    mapping (address => uint) public pendingWithdrawals;\n\n    mapping (uint => ChessGame) public playingChessGame;\n    mapping (address => ChessGame) public GamePlayers;\n\n    ChessGame private curChessGame;\n    OneChess private curOneChess;\n\n    event GameStart(uint indexed gameId, address redAddress, address blackAddress, uint value);\n    event GameChange(uint indexed gameId, address indexed redAddress, address indexed blackAddress, bool changeSuccess, uint eatPieceId);\n    event GameOver(uint indexed gameId, address indexed redAddress, address indexed blackAddress, address winner, bool gameOver, bool changeSuccess, uint eatPieceId);\n\n\n    constructor(address lowbToken_) {\n        lowbTokenAddress = lowbToken_;\n        owner = msg.sender;\n        fee = 250;\n    }\n\n    modifier onlyOwner{\n        require(tx.origin == owner, \"You are not the owner\");\n        _;\n    }\n\n    function deposit(uint amount) public {\n        require(amount > 0, \"You deposit nothing!\");\n        IERC20 token = IERC20(lowbTokenAddress);\n        require(token.transferFrom(tx.origin, address(this), amount), \"Lowb transfer failed\");\n        pendingWithdrawals[tx.origin] +=  amount;\n    }\n\n    function withdraw(uint amount) public {\n        require(amount <= pendingWithdrawals[tx.origin], \"amount larger than that pending to withdraw\");  \n        pendingWithdrawals[tx.origin] -= amount;\n        IERC20 token = IERC20(lowbTokenAddress);\n        require(token.transfer(tx.origin, amount), \"Lowb transfer failed\");\n    }\n\n    function _makeDeal(uint amount) private returns (uint) {\n        uint fee_amount = amount / INVERSE_BASIS_POINT * fee;\n        uint actual_amount = amount - fee_amount;\n        require(actual_amount > 0, \"Fees should less than the transaction value.\");\n        pendingWithdrawals[address(this)] += fee_amount;\n        return actual_amount;\n    }\n\n    /*  */\n    function startPlayGame(uint value_) public returns(uint) {\n        require(!GamePlayers[msg.sender].isPlaying, \"player in another room\");\n        require(value_ <= pendingWithdrawals[msg.sender], \"player value_ larger than that pending to withdraw\");  \n        require((value_ == 10000) || (value_ == 30000) || (value_ == 50000), \"invalid value_\");\n        pendingWithdrawals[msg.sender] -= value_;\n        if (value_ == 10000) {\n            if (penddingChess10K.exist) {\n                penddingChess10K.blackPlayer = msg.sender;\n                curGameId++;\n                curOneChess = new OneChess(penddingChess30K.redPlayer, penddingChess30K.blackPlayer);\n                curChessGame = ChessGame(true, curGameId, penddingChess10K.redPlayer, penddingChess10K.blackPlayer, value_ * 2, curOneChess);\n                GamePlayers[penddingChess10K.redPlayer] = curChessGame;\n                GamePlayers[penddingChess10K.blackPlayer] = curChessGame;\n                penddingChess10K.exist = false;\n                playingChessGame[curGameId] = curChessGame;\n                emit GameStart(curGameId, penddingChess10K.redPlayer, penddingChess10K.blackPlayer, value_ * 2);\n            } else {\n                penddingChess10K = PenddingGame(true, msg.sender, address(0));\n            }\n        } else if (value_ == 30000) {\n            if (penddingChess30K.exist) {\n                penddingChess30K.blackPlayer = msg.sender;\n                curGameId++;\n                curOneChess = new OneChess(penddingChess30K.redPlayer, penddingChess30K.blackPlayer);\n                curChessGame = ChessGame(true, curGameId, penddingChess30K.redPlayer, penddingChess30K.blackPlayer, value_ * 2, curOneChess);\n                GamePlayers[penddingChess30K.redPlayer] = curChessGame;\n                GamePlayers[penddingChess30K.blackPlayer] = curChessGame;\n                penddingChess30K.exist = false;\n                playingChessGame[curGameId] = curChessGame;\n                emit GameStart(curGameId, penddingChess30K.redPlayer, penddingChess30K.blackPlayer, value_ * 2);\n            } else {\n                penddingChess30K = PenddingGame(true, msg.sender, address(0));\n            }\n\n        } else if (value_ == 50000) {\n            if (penddingChess50K.exist) {\n                penddingChess50K.blackPlayer = msg.sender;\n                curGameId++;\n                curOneChess = new OneChess(penddingChess30K.redPlayer, penddingChess30K.blackPlayer);\n                curChessGame = ChessGame(true, curGameId, penddingChess50K.redPlayer, penddingChess50K.blackPlayer, value_ * 2, curOneChess);\n                GamePlayers[penddingChess10K.redPlayer] = curChessGame;\n                GamePlayers[penddingChess10K.blackPlayer] = curChessGame;\n                penddingChess10K.exist = false;\n                playingChessGame[curGameId] = curChessGame;\n                emit GameStart(curGameId, penddingChess50K.redPlayer, penddingChess50K.blackPlayer, value_ * 2);\n            } else {\n                penddingChess10K = PenddingGame(true, msg.sender, address(0));\n            }\n\n        } \n        return curGameId;\n    }\n\n    function chageGame(uint pieceId,uint x, uint y) public {\n        require(GamePlayers[tx.origin].isPlaying, \"player is not in gaming\");\n        bool chageSuccess;\n        bool gameOver;\n        string memory errMsg;\n        address winner;\n        uint eatPieceId;\n        (chageSuccess, gameOver, errMsg, winner, eatPieceId) = GamePlayers[tx.origin].oneChess.chagePiece(pieceId, x, y);\n        uint gameId = GamePlayers[tx.origin].gameId;\n        address redPlayer = GamePlayers[tx.origin].redPlayer;\n        address blackPlayer = GamePlayers[tx.origin].blackPlayer;\n        require(chageSuccess, errMsg);\n        if (gameOver) {\n            gameOverConfirm(gameId, winner);\n            emit GameOver(gameId, redPlayer, blackPlayer,winner, gameOver, chageSuccess, eatPieceId);\n        } else {\n            emit GameChange(gameId, redPlayer, blackPlayer, chageSuccess, eatPieceId);\n        }\n    }\n\n\n    /*  */\n    function gameOverConfirm(uint gameId, address winner) public {\n        ChessGame memory game = playingChessGame[gameId];\n        require((tx.origin == owner) || (tx.origin == game.redPlayer) || (tx.origin == game.blackPlayer), \"You can not over the game\");\n        uint value = game.value;\n        uint deal = _makeDeal(value);\n        uint realValue = value - deal;\n        pendingWithdrawals[winner] += realValue;\n        pendingWithdrawals[owner] += deal;\n        playingChessGame[gameId].isPlaying = false;\n        GamePlayers[game.redPlayer].isPlaying = false;\n        GamePlayers[game.blackPlayer].isPlaying = false;\n        playingChessGame[gameId].value = 0;\n    }\n\n\n\n    function pullFunds() public onlyOwner {\n        IERC20 lowb = IERC20(lowbTokenAddress);\n        lowb.transfer(msg.sender, pendingWithdrawals[address(this)]);\n        pendingWithdrawals[address(this)] = 0;\n    }\n\n}",
  "sourcePath": "/Users/qiuyayong/Workspace/truffle/lowbChessContract/contracts/ChessContract.sol",
  "compiler": {
    "name": "solc",
    "version": "0.8.0+commit.c7dfd78e.Emscripten.clang"
  },
  "schemaVersion": "3.3.4",
  "updatedAt": "2021-07-26T12:21:02.235Z",
  "devdoc": {
    "kind": "dev",
    "methods": {},
    "version": 1
  },
  "userdoc": {
    "kind": "user",
    "methods": {
      "penddingChess10K()": {
        "notice": "1w,3w,5w  "
      }
    },
    "version": 1
  }
}